{
  "_format": "hh-sol-artifact-1",
  "contractName": "MasterRANCEWallet",
  "sourceName": "contracts/MasterRANCEWallet.sol",
  "abi": [
    {
      "inputs": [
        {
          "internalType": "contract IBEP20",
          "name": "_RANCE",
          "type": "address"
        }
      ],
      "stateMutability": "nonpayable",
      "type": "constructor"
    },
    {
      "anonymous": false,
      "inputs": [
        {
          "indexed": true,
          "internalType": "address",
          "name": "previousOwner",
          "type": "address"
        },
        {
          "indexed": true,
          "internalType": "address",
          "name": "newOwner",
          "type": "address"
        }
      ],
      "name": "OwnershipTransferred",
      "type": "event"
    },
    {
      "inputs": [],
      "name": "RANCE",
      "outputs": [
        {
          "internalType": "contract IBEP20",
          "name": "",
          "type": "address"
        }
      ],
      "stateMutability": "view",
      "type": "function"
    },
    {
      "inputs": [
        {
          "internalType": "address",
          "name": "_MasterRANCE",
          "type": "address"
        }
      ],
      "name": "addMasterRANCE",
      "outputs": [],
      "stateMutability": "nonpayable",
      "type": "function"
    },
    {
      "inputs": [
        {
          "internalType": "address",
          "name": "",
          "type": "address"
        }
      ],
      "name": "masters",
      "outputs": [
        {
          "internalType": "bool",
          "name": "",
          "type": "bool"
        }
      ],
      "stateMutability": "view",
      "type": "function"
    },
    {
      "inputs": [],
      "name": "owner",
      "outputs": [
        {
          "internalType": "address",
          "name": "",
          "type": "address"
        }
      ],
      "stateMutability": "view",
      "type": "function"
    },
    {
      "inputs": [
        {
          "internalType": "address",
          "name": "_MasterRANCE",
          "type": "address"
        }
      ],
      "name": "removeMasterRANCE",
      "outputs": [],
      "stateMutability": "nonpayable",
      "type": "function"
    },
    {
      "inputs": [],
      "name": "renounceOwnership",
      "outputs": [],
      "stateMutability": "nonpayable",
      "type": "function"
    },
    {
      "inputs": [
        {
          "internalType": "address",
          "name": "_to",
          "type": "address"
        },
        {
          "internalType": "uint256",
          "name": "_amount",
          "type": "uint256"
        }
      ],
      "name": "safeRANCETransfer",
      "outputs": [
        {
          "internalType": "uint256",
          "name": "",
          "type": "uint256"
        }
      ],
      "stateMutability": "nonpayable",
      "type": "function"
    },
    {
      "inputs": [
        {
          "internalType": "address",
          "name": "_to",
          "type": "address"
        },
        {
          "internalType": "uint256",
          "name": "_amount",
          "type": "uint256"
        },
        {
          "internalType": "contract IBEP20",
          "name": "_token",
          "type": "address"
        }
      ],
      "name": "safeTokenTransfer",
      "outputs": [
        {
          "internalType": "uint256",
          "name": "",
          "type": "uint256"
        }
      ],
      "stateMutability": "nonpayable",
      "type": "function"
    },
    {
      "inputs": [
        {
          "internalType": "address",
          "name": "newOwner",
          "type": "address"
        }
      ],
      "name": "transferOwnership",
      "outputs": [],
      "stateMutability": "nonpayable",
      "type": "function"
    }
  ],
  "bytecode": "0x60806040523480156200001157600080fd5b506040516200175438038062001754833981810160405281019062000037919062000182565b620000576200004b6200009f60201b60201c565b620000a760201b60201c565b80600160006101000a81548173ffffffffffffffffffffffffffffffffffffffff021916908373ffffffffffffffffffffffffffffffffffffffff1602179055505062000210565b600033905090565b60008060009054906101000a900473ffffffffffffffffffffffffffffffffffffffff169050816000806101000a81548173ffffffffffffffffffffffffffffffffffffffff021916908373ffffffffffffffffffffffffffffffffffffffff1602179055508173ffffffffffffffffffffffffffffffffffffffff168173ffffffffffffffffffffffffffffffffffffffff167f8be0079c531659141344cd1fd0a4f28419497f9722a3daafe3b4186f6b6457e060405160405180910390a35050565b6000815190506200017c81620001f6565b92915050565b6000602082840312156200019557600080fd5b6000620001a5848285016200016b565b91505092915050565b6000620001bb82620001d6565b9050919050565b6000620001cf82620001ae565b9050919050565b600073ffffffffffffffffffffffffffffffffffffffff82169050919050565b6200020181620001c2565b81146200020d57600080fd5b50565b61153480620002206000396000f3fe608060405234801561001057600080fd5b50600436106100935760003560e01c80637b2ca45e116100665780637b2ca45e146101205780638da5cb5b14610150578063a25fa3ad1461016e578063db3550051461018a578063f2fde38b146101a657610093565b80634431a94c146100985780635b9f3ce1146100b6578063715018a6146100e65780637a38a106146100f0575b600080fd5b6100a06101c2565b6040516100ad9190611099565b60405180910390f35b6100d060048036038101906100cb9190610dab565b6101e8565b6040516100dd91906111b6565b60405180910390f35b6100ee610418565b005b61010a60048036038101906101059190610d82565b6104a0565b604051610117919061107e565b60405180910390f35b61013a60048036038101906101359190610de7565b6104c0565b60405161014791906111b6565b60405180910390f35b61015861068b565b604051610165919061103a565b60405180910390f35b61018860048036038101906101839190610d82565b6106b4565b005b6101a4600480360381019061019f9190610d82565b61078b565b005b6101c060048036038101906101bb9190610d82565b610862565b005b600160009054906101000a900473ffffffffffffffffffffffffffffffffffffffff1681565b6000600260003373ffffffffffffffffffffffffffffffffffffffff1673ffffffffffffffffffffffffffffffffffffffff16815260200190815260200160002060009054906101000a900460ff1680610274575061024561068b565b73ffffffffffffffffffffffffffffffffffffffff163373ffffffffffffffffffffffffffffffffffffffff16145b6102b3576040517f08c379a00000000000000000000000000000000000000000000000000000000081526004016102aa90611156565b60405180910390fd5b6000600160009054906101000a900473ffffffffffffffffffffffffffffffffffffffff1673ffffffffffffffffffffffffffffffffffffffff166370a08231306040518263ffffffff1660e01b8152600401610310919061103a565b60206040518083038186803b15801561032857600080fd5b505afa15801561033c573d6000803e3d6000fd5b505050506040513d601f19601f820116820180604052508101906103609190610e5f565b9050808311156103c0576103b78482600160009054906101000a900473ffffffffffffffffffffffffffffffffffffffff1673ffffffffffffffffffffffffffffffffffffffff1661095a9092919063ffffffff16565b80915050610412565b61040d8484600160009054906101000a900473ffffffffffffffffffffffffffffffffffffffff1673ffffffffffffffffffffffffffffffffffffffff1661095a9092919063ffffffff16565b829150505b92915050565b6104206109e0565b73ffffffffffffffffffffffffffffffffffffffff1661043e61068b565b73ffffffffffffffffffffffffffffffffffffffff1614610494576040517f08c379a000000000000000000000000000000000000000000000000000000000815260040161048b90611116565b60405180910390fd5b61049e60006109e8565b565b60026020528060005260406000206000915054906101000a900460ff1681565b6000600260003373ffffffffffffffffffffffffffffffffffffffff1673ffffffffffffffffffffffffffffffffffffffff16815260200190815260200160002060009054906101000a900460ff168061054c575061051d61068b565b73ffffffffffffffffffffffffffffffffffffffff163373ffffffffffffffffffffffffffffffffffffffff16145b61058b576040517f08c379a000000000000000000000000000000000000000000000000000000000815260040161058290611136565b60405180910390fd5b60008273ffffffffffffffffffffffffffffffffffffffff166370a08231306040518263ffffffff1660e01b81526004016105c6919061103a565b60206040518083038186803b1580156105de57600080fd5b505afa1580156105f2573d6000803e3d6000fd5b505050506040513d601f19601f820116820180604052508101906106169190610e5f565b9050808411156106545761064b85828573ffffffffffffffffffffffffffffffffffffffff1661095a9092919063ffffffff16565b80915050610684565b61067f85858573ffffffffffffffffffffffffffffffffffffffff1661095a9092919063ffffffff16565b839150505b9392505050565b60008060009054906101000a900473ffffffffffffffffffffffffffffffffffffffff16905090565b6106bc6109e0565b73ffffffffffffffffffffffffffffffffffffffff166106da61068b565b73ffffffffffffffffffffffffffffffffffffffff1614610730576040517f08c379a000000000000000000000000000000000000000000000000000000000815260040161072790611116565b60405180910390fd5b6001600260008373ffffffffffffffffffffffffffffffffffffffff1673ffffffffffffffffffffffffffffffffffffffff16815260200190815260200160002060006101000a81548160ff02191690831515021790555050565b6107936109e0565b73ffffffffffffffffffffffffffffffffffffffff166107b161068b565b73ffffffffffffffffffffffffffffffffffffffff1614610807576040517f08c379a00000000000000000000000000000000000000000000000000000000081526004016107fe90611116565b60405180910390fd5b6000600260008373ffffffffffffffffffffffffffffffffffffffff1673ffffffffffffffffffffffffffffffffffffffff16815260200190815260200160002060006101000a81548160ff02191690831515021790555050565b61086a6109e0565b73ffffffffffffffffffffffffffffffffffffffff1661088861068b565b73ffffffffffffffffffffffffffffffffffffffff16146108de576040517f08c379a00000000000000000000000000000000000000000000000000000000081526004016108d590611116565b60405180910390fd5b600073ffffffffffffffffffffffffffffffffffffffff168173ffffffffffffffffffffffffffffffffffffffff16141561094e576040517f08c379a0000000000000000000000000000000000000000000000000000000008152600401610945906110d6565b60405180910390fd5b610957816109e8565b50565b6109db8363a9059cbb60e01b8484604051602401610979929190611055565b604051602081830303815290604052907bffffffffffffffffffffffffffffffffffffffffffffffffffffffff19166020820180517bffffffffffffffffffffffffffffffffffffffffffffffffffffffff8381831617835250505050610aac565b505050565b600033905090565b60008060009054906101000a900473ffffffffffffffffffffffffffffffffffffffff169050816000806101000a81548173ffffffffffffffffffffffffffffffffffffffff021916908373ffffffffffffffffffffffffffffffffffffffff1602179055508173ffffffffffffffffffffffffffffffffffffffff168173ffffffffffffffffffffffffffffffffffffffff167f8be0079c531659141344cd1fd0a4f28419497f9722a3daafe3b4186f6b6457e060405160405180910390a35050565b6000610b0e826040518060400160405280602081526020017f5361666545524332303a206c6f772d6c6576656c2063616c6c206661696c65648152508573ffffffffffffffffffffffffffffffffffffffff16610b739092919063ffffffff16565b9050600081511115610b6e5780806020019051810190610b2e9190610e36565b610b6d576040517f08c379a0000000000000000000000000000000000000000000000000000000008152600401610b6490611196565b60405180910390fd5b5b505050565b6060610b828484600085610b8b565b90509392505050565b606082471015610bd0576040517f08c379a0000000000000000000000000000000000000000000000000000000008152600401610bc7906110f6565b60405180910390fd5b610bd985610c9f565b610c18576040517f08c379a0000000000000000000000000000000000000000000000000000000008152600401610c0f90611176565b60405180910390fd5b6000808673ffffffffffffffffffffffffffffffffffffffff168587604051610c419190611023565b60006040518083038185875af1925050503d8060008114610c7e576040519150601f19603f3d011682016040523d82523d6000602084013e610c83565b606091505b5091509150610c93828286610cb2565b92505050949350505050565b600080823b905060008111915050919050565b60608315610cc257829050610d12565b600083511115610cd55782518084602001fd5b816040517f08c379a0000000000000000000000000000000000000000000000000000000008152600401610d0991906110b4565b60405180910390fd5b9392505050565b600081359050610d28816114a2565b92915050565b600081519050610d3d816114b9565b92915050565b600081359050610d52816114d0565b92915050565b600081359050610d67816114e7565b92915050565b600081519050610d7c816114e7565b92915050565b600060208284031215610d9457600080fd5b6000610da284828501610d19565b91505092915050565b60008060408385031215610dbe57600080fd5b6000610dcc85828601610d19565b9250506020610ddd85828601610d58565b9150509250929050565b600080600060608486031215610dfc57600080fd5b6000610e0a86828701610d19565b9350506020610e1b86828701610d58565b9250506040610e2c86828701610d43565b9150509250925092565b600060208284031215610e4857600080fd5b6000610e5684828501610d2e565b91505092915050565b600060208284031215610e7157600080fd5b6000610e7f84828501610d6d565b91505092915050565b610e9181611203565b82525050565b610ea081611215565b82525050565b6000610eb1826111d1565b610ebb81856111e7565b9350610ecb818560208601611281565b80840191505092915050565b610ee08161125d565b82525050565b6000610ef1826111dc565b610efb81856111f2565b9350610f0b818560208601611281565b610f14816112b4565b840191505092915050565b6000610f2c6026836111f2565b9150610f37826112c5565b604082019050919050565b6000610f4f6026836111f2565b9150610f5a82611314565b604082019050919050565b6000610f726020836111f2565b9150610f7d82611363565b602082019050919050565b6000610f95602f836111f2565b9150610fa08261138c565b604082019050919050565b6000610fb86031836111f2565b9150610fc3826113db565b604082019050919050565b6000610fdb601d836111f2565b9150610fe68261142a565b602082019050919050565b6000610ffe602a836111f2565b915061100982611453565b604082019050919050565b61101d81611253565b82525050565b600061102f8284610ea6565b915081905092915050565b600060208201905061104f6000830184610e88565b92915050565b600060408201905061106a6000830185610e88565b6110776020830184611014565b9392505050565b60006020820190506110936000830184610e97565b92915050565b60006020820190506110ae6000830184610ed7565b92915050565b600060208201905081810360008301526110ce8184610ee6565b905092915050565b600060208201905081810360008301526110ef81610f1f565b9050919050565b6000602082019050818103600083015261110f81610f42565b9050919050565b6000602082019050818103600083015261112f81610f65565b9050919050565b6000602082019050818103600083015261114f81610f88565b9050919050565b6000602082019050818103600083015261116f81610fab565b9050919050565b6000602082019050818103600083015261118f81610fce565b9050919050565b600060208201905081810360008301526111af81610ff1565b9050919050565b60006020820190506111cb6000830184611014565b92915050565b600081519050919050565b600081519050919050565b600081905092915050565b600082825260208201905092915050565b600061120e82611233565b9050919050565b60008115159050919050565b600061122c82611203565b9050919050565b600073ffffffffffffffffffffffffffffffffffffffff82169050919050565b6000819050919050565b60006112688261126f565b9050919050565b600061127a82611233565b9050919050565b60005b8381101561129f578082015181840152602081019050611284565b838111156112ae576000848401525b50505050565b6000601f19601f8301169050919050565b7f4f776e61626c653a206e6577206f776e657220697320746865207a65726f206160008201527f6464726573730000000000000000000000000000000000000000000000000000602082015250565b7f416464726573733a20696e73756666696369656e742062616c616e636520666f60008201527f722063616c6c0000000000000000000000000000000000000000000000000000602082015250565b7f4f776e61626c653a2063616c6c6572206973206e6f7420746865206f776e6572600082015250565b7f57616c6c65743a204f6e6c79204d617374657252414e434520616e64204f776e60008201527f65722063616e207472616e736665720000000000000000000000000000000000602082015250565b7f57616c6c65743a204f6e6c792061204d617374657252414e434520616e64204f60008201527f776e65722063616e207472616e73666572000000000000000000000000000000602082015250565b7f416464726573733a2063616c6c20746f206e6f6e2d636f6e7472616374000000600082015250565b7f5361666545524332303a204552433230206f7065726174696f6e20646964206e60008201527f6f74207375636365656400000000000000000000000000000000000000000000602082015250565b6114ab81611203565b81146114b657600080fd5b50565b6114c281611215565b81146114cd57600080fd5b50565b6114d981611221565b81146114e457600080fd5b50565b6114f081611253565b81146114fb57600080fd5b5056fea2646970667358221220cb5d7fc4c219122966d3f17a68522dbf5a4d7263756e124e7ea9c1f15f1fb9ab64736f6c63430008020033",
  "linkReferences": {},
  "deployedLinkReferences": {}
}