{
  "_format": "hh-sol-artifact-1",
  "contractName": "MasterMUSD",
  "sourceName": "contracts/Farm2.sol",
  "abi": [
    {
      "anonymous": false,
      "inputs": [
        {
          "indexed": false,
          "internalType": "address",
          "name": "previousAdmin",
          "type": "address"
        },
        {
          "indexed": false,
          "internalType": "address",
          "name": "newAdmin",
          "type": "address"
        }
      ],
      "name": "AdminChanged",
      "type": "event"
    },
    {
      "anonymous": false,
      "inputs": [
        {
          "indexed": true,
          "internalType": "address",
          "name": "beacon",
          "type": "address"
        }
      ],
      "name": "BeaconUpgraded",
      "type": "event"
    },
    {
      "anonymous": false,
      "inputs": [
        {
          "indexed": true,
          "internalType": "address",
          "name": "user",
          "type": "address"
        },
        {
          "indexed": true,
          "internalType": "uint256",
          "name": "pid",
          "type": "uint256"
        },
        {
          "indexed": false,
          "internalType": "uint256",
          "name": "amount",
          "type": "uint256"
        }
      ],
      "name": "Deposit",
      "type": "event"
    },
    {
      "anonymous": false,
      "inputs": [
        {
          "indexed": true,
          "internalType": "address",
          "name": "user",
          "type": "address"
        },
        {
          "indexed": true,
          "internalType": "uint256",
          "name": "pid",
          "type": "uint256"
        },
        {
          "indexed": false,
          "internalType": "uint256",
          "name": "amount",
          "type": "uint256"
        }
      ],
      "name": "EmergencyWithdraw",
      "type": "event"
    },
    {
      "anonymous": false,
      "inputs": [
        {
          "indexed": true,
          "internalType": "address",
          "name": "previousOwner",
          "type": "address"
        },
        {
          "indexed": true,
          "internalType": "address",
          "name": "newOwner",
          "type": "address"
        }
      ],
      "name": "OwnershipTransferred",
      "type": "event"
    },
    {
      "anonymous": false,
      "inputs": [
        {
          "indexed": false,
          "internalType": "address",
          "name": "account",
          "type": "address"
        }
      ],
      "name": "Paused",
      "type": "event"
    },
    {
      "anonymous": false,
      "inputs": [
        {
          "indexed": false,
          "internalType": "address",
          "name": "account",
          "type": "address"
        }
      ],
      "name": "Unpaused",
      "type": "event"
    },
    {
      "anonymous": false,
      "inputs": [
        {
          "indexed": true,
          "internalType": "address",
          "name": "implementation",
          "type": "address"
        }
      ],
      "name": "Upgraded",
      "type": "event"
    },
    {
      "anonymous": false,
      "inputs": [
        {
          "indexed": true,
          "internalType": "address",
          "name": "user",
          "type": "address"
        },
        {
          "indexed": true,
          "internalType": "uint256",
          "name": "pid",
          "type": "uint256"
        },
        {
          "indexed": false,
          "internalType": "uint256",
          "name": "amount",
          "type": "uint256"
        }
      ],
      "name": "Withdraw",
      "type": "event"
    },
    {
      "inputs": [],
      "name": "BONUS_MULTIPLIER",
      "outputs": [
        {
          "internalType": "uint256",
          "name": "",
          "type": "uint256"
        }
      ],
      "stateMutability": "view",
      "type": "function"
    },
    {
      "inputs": [],
      "name": "MUSD",
      "outputs": [
        {
          "internalType": "contract IBEP20",
          "name": "",
          "type": "address"
        }
      ],
      "stateMutability": "view",
      "type": "function"
    },
    {
      "inputs": [],
      "name": "MUSDPerBlock",
      "outputs": [
        {
          "internalType": "uint256",
          "name": "",
          "type": "uint256"
        }
      ],
      "stateMutability": "view",
      "type": "function"
    },
    {
      "inputs": [
        {
          "internalType": "uint256",
          "name": "_allocPoint",
          "type": "uint256"
        },
        {
          "internalType": "contract IBEP20",
          "name": "_lpToken",
          "type": "address"
        },
        {
          "internalType": "bool",
          "name": "_withUpdate",
          "type": "bool"
        }
      ],
      "name": "add",
      "outputs": [],
      "stateMutability": "nonpayable",
      "type": "function"
    },
    {
      "inputs": [],
      "name": "compound",
      "outputs": [],
      "stateMutability": "nonpayable",
      "type": "function"
    },
    {
      "inputs": [
        {
          "internalType": "uint256",
          "name": "_pid",
          "type": "uint256"
        },
        {
          "internalType": "uint256",
          "name": "_amount",
          "type": "uint256"
        }
      ],
      "name": "deposit",
      "outputs": [],
      "stateMutability": "nonpayable",
      "type": "function"
    },
    {
      "inputs": [
        {
          "internalType": "uint256",
          "name": "_pid",
          "type": "uint256"
        }
      ],
      "name": "emergencyWithdraw",
      "outputs": [],
      "stateMutability": "nonpayable",
      "type": "function"
    },
    {
      "inputs": [
        {
          "internalType": "uint256",
          "name": "_from",
          "type": "uint256"
        },
        {
          "internalType": "uint256",
          "name": "_to",
          "type": "uint256"
        }
      ],
      "name": "getMultiplier",
      "outputs": [
        {
          "internalType": "uint256",
          "name": "",
          "type": "uint256"
        }
      ],
      "stateMutability": "view",
      "type": "function"
    },
    {
      "inputs": [
        {
          "internalType": "contract IBEP20",
          "name": "_MUSD",
          "type": "address"
        },
        {
          "internalType": "uint256",
          "name": "_MUSDPerBlock",
          "type": "uint256"
        },
        {
          "internalType": "uint256",
          "name": "_startBlock",
          "type": "uint256"
        },
        {
          "internalType": "contract MasterRANCEWallet",
          "name": "_wallet",
          "type": "address"
        }
      ],
      "name": "initialize",
      "outputs": [],
      "stateMutability": "nonpayable",
      "type": "function"
    },
    {
      "inputs": [],
      "name": "massUpdatePools",
      "outputs": [],
      "stateMutability": "nonpayable",
      "type": "function"
    },
    {
      "inputs": [
        {
          "internalType": "uint256",
          "name": "_pid",
          "type": "uint256"
        }
      ],
      "name": "migrate",
      "outputs": [],
      "stateMutability": "nonpayable",
      "type": "function"
    },
    {
      "inputs": [],
      "name": "migrator",
      "outputs": [
        {
          "internalType": "contract IMigratorChef",
          "name": "",
          "type": "address"
        }
      ],
      "stateMutability": "view",
      "type": "function"
    },
    {
      "inputs": [],
      "name": "owner",
      "outputs": [
        {
          "internalType": "address",
          "name": "",
          "type": "address"
        }
      ],
      "stateMutability": "view",
      "type": "function"
    },
    {
      "inputs": [],
      "name": "pause",
      "outputs": [],
      "stateMutability": "nonpayable",
      "type": "function"
    },
    {
      "inputs": [],
      "name": "paused",
      "outputs": [
        {
          "internalType": "bool",
          "name": "",
          "type": "bool"
        }
      ],
      "stateMutability": "view",
      "type": "function"
    },
    {
      "inputs": [
        {
          "internalType": "uint256",
          "name": "_pid",
          "type": "uint256"
        },
        {
          "internalType": "address",
          "name": "_user",
          "type": "address"
        }
      ],
      "name": "pendingMUSD",
      "outputs": [
        {
          "internalType": "uint256",
          "name": "",
          "type": "uint256"
        }
      ],
      "stateMutability": "view",
      "type": "function"
    },
    {
      "inputs": [
        {
          "internalType": "uint256",
          "name": "",
          "type": "uint256"
        }
      ],
      "name": "poolInfo",
      "outputs": [
        {
          "internalType": "contract IBEP20",
          "name": "lpToken",
          "type": "address"
        },
        {
          "internalType": "uint256",
          "name": "allocPoint",
          "type": "uint256"
        },
        {
          "internalType": "uint256",
          "name": "lastRewardBlock",
          "type": "uint256"
        },
        {
          "internalType": "uint256",
          "name": "accMUSDPerShare",
          "type": "uint256"
        }
      ],
      "stateMutability": "view",
      "type": "function"
    },
    {
      "inputs": [],
      "name": "poolLength",
      "outputs": [
        {
          "internalType": "uint256",
          "name": "",
          "type": "uint256"
        }
      ],
      "stateMutability": "view",
      "type": "function"
    },
    {
      "inputs": [],
      "name": "renounceOwnership",
      "outputs": [],
      "stateMutability": "nonpayable",
      "type": "function"
    },
    {
      "inputs": [
        {
          "internalType": "uint256",
          "name": "_pid",
          "type": "uint256"
        },
        {
          "internalType": "uint256",
          "name": "_allocPoint",
          "type": "uint256"
        },
        {
          "internalType": "bool",
          "name": "_withUpdate",
          "type": "bool"
        }
      ],
      "name": "set",
      "outputs": [],
      "stateMutability": "nonpayable",
      "type": "function"
    },
    {
      "inputs": [
        {
          "internalType": "contract IMigratorChef",
          "name": "_migrator",
          "type": "address"
        }
      ],
      "name": "setMigrator",
      "outputs": [],
      "stateMutability": "nonpayable",
      "type": "function"
    },
    {
      "inputs": [],
      "name": "startBlock",
      "outputs": [
        {
          "internalType": "uint256",
          "name": "",
          "type": "uint256"
        }
      ],
      "stateMutability": "view",
      "type": "function"
    },
    {
      "inputs": [],
      "name": "totalAllocPoint",
      "outputs": [
        {
          "internalType": "uint256",
          "name": "",
          "type": "uint256"
        }
      ],
      "stateMutability": "view",
      "type": "function"
    },
    {
      "inputs": [
        {
          "internalType": "address",
          "name": "newOwner",
          "type": "address"
        }
      ],
      "name": "transferOwnership",
      "outputs": [],
      "stateMutability": "nonpayable",
      "type": "function"
    },
    {
      "inputs": [],
      "name": "unpause",
      "outputs": [],
      "stateMutability": "nonpayable",
      "type": "function"
    },
    {
      "inputs": [
        {
          "internalType": "uint256",
          "name": "multiplierNumber",
          "type": "uint256"
        }
      ],
      "name": "updateMultiplier",
      "outputs": [],
      "stateMutability": "nonpayable",
      "type": "function"
    },
    {
      "inputs": [
        {
          "internalType": "uint256",
          "name": "_pid",
          "type": "uint256"
        }
      ],
      "name": "updatePool",
      "outputs": [],
      "stateMutability": "nonpayable",
      "type": "function"
    },
    {
      "inputs": [
        {
          "internalType": "address",
          "name": "newImplementation",
          "type": "address"
        }
      ],
      "name": "upgradeTo",
      "outputs": [],
      "stateMutability": "nonpayable",
      "type": "function"
    },
    {
      "inputs": [
        {
          "internalType": "address",
          "name": "newImplementation",
          "type": "address"
        },
        {
          "internalType": "bytes",
          "name": "data",
          "type": "bytes"
        }
      ],
      "name": "upgradeToAndCall",
      "outputs": [],
      "stateMutability": "payable",
      "type": "function"
    },
    {
      "inputs": [
        {
          "internalType": "uint256",
          "name": "",
          "type": "uint256"
        },
        {
          "internalType": "address",
          "name": "",
          "type": "address"
        }
      ],
      "name": "userInfo",
      "outputs": [
        {
          "internalType": "uint256",
          "name": "amount",
          "type": "uint256"
        },
        {
          "internalType": "uint256",
          "name": "rewardDebt",
          "type": "uint256"
        }
      ],
      "stateMutability": "view",
      "type": "function"
    },
    {
      "inputs": [],
      "name": "wallet",
      "outputs": [
        {
          "internalType": "contract MasterRANCEWallet",
          "name": "",
          "type": "address"
        }
      ],
      "stateMutability": "view",
      "type": "function"
    },
    {
      "inputs": [
        {
          "internalType": "uint256",
          "name": "_pid",
          "type": "uint256"
        },
        {
          "internalType": "uint256",
          "name": "_amount",
          "type": "uint256"
        }
      ],
      "name": "withdraw",
      "outputs": [],
      "stateMutability": "nonpayable",
      "type": "function"
    }
  ],
  "bytecode": "0x608060405234801561001057600080fd5b50614b01806100206000396000f3fe6080604052600436106101e35760003560e01c80635c975abb116101025780638aa28550116100955780639e3d87cd116100645780639e3d87cd14610677578063e2bbb158146106a0578063f2fde38b146106c9578063f69e2046146106f2576101e3565b80638aa28550146105a65780638da5cb5b146105d15780638dbb1e3a146105fc57806393f1a40b14610639576101e3565b806364482f79116100d157806364482f7914610524578063715018a61461054d5780637cd07e47146105645780638456cb591461058f576101e3565b80635c975abb1461048e5780635deed422146104b95780635ffe6146146104e4578063630b5ba11461050d576101e3565b806343a826211161017a5780634f1ef286116101495780634f1ef286146103f557806351eb05a614610411578063521eb2731461043a5780635312ea8e14610465576101e3565b806343a826211461034d578063441a3e7014610378578063454b0608146103a157806348cd4cb1146103ca576101e3565b80631eaaa045116101b65780631eaaa045146102bb57806323cf3118146102e45780633659cfe61461030d5780633f4ba83a14610336576101e3565b8063081e3eda146101e857806311db11a2146102135780631526fe271461025057806317caf6f114610290575b600080fd5b3480156101f457600080fd5b506101fd610709565b60405161020a919061425e565b60405180910390f35b34801561021f57600080fd5b5061023a60048036038101906102359190613ad2565b610717565b604051610247919061425e565b60405180910390f35b34801561025c57600080fd5b5061027760048036038101906102729190613a80565b610a61565b6040516102879493929190613fe1565b60405180910390f35b34801561029c57600080fd5b506102a5610ac2565b6040516102b2919061425e565b60405180910390f35b3480156102c757600080fd5b506102e260048036038101906102dd9190613b0e565b610ac9565b005b3480156102f057600080fd5b5061030b60048036038101906103069190613a57565b610c5b565b005b34801561031957600080fd5b50610334600480360381019061032f9190613925565b610d1b565b005b34801561034257600080fd5b5061034b610d42565b005b34801561035957600080fd5b50610362610dc8565b60405161036f9190613fc6565b60405180910390f35b34801561038457600080fd5b5061039f600480360381019061039a9190613b5d565b610dee565b005b3480156103ad57600080fd5b506103c860048036038101906103c39190613a80565b6110a0565b005b3480156103d657600080fd5b506103df611447565b6040516103ec919061425e565b60405180910390f35b61040f600480360381019061040a919061394e565b61144e565b005b34801561041d57600080fd5b5061043860048036038101906104339190613a80565b611467565b005b34801561044657600080fd5b5061044f611723565b60405161045c9190614041565b60405180910390f35b34801561047157600080fd5b5061048c60048036038101906104879190613a80565b611749565b005b34801561049a57600080fd5b506104a36118f3565b6040516104b09190613fab565b60405180910390f35b3480156104c557600080fd5b506104ce61190a565b6040516104db919061425e565b60405180910390f35b3480156104f057600080fd5b5061050b60048036038101906105069190613a80565b611910565b005b34801561051957600080fd5b50610522611996565b005b34801561053057600080fd5b5061054b60048036038101906105469190613b99565b6119ca565b005b34801561055957600080fd5b50610562611b34565b005b34801561057057600080fd5b50610579611bbc565b6040516105869190614026565b60405180910390f35b34801561059b57600080fd5b506105a4611be2565b005b3480156105b257600080fd5b506105bb611c68565b6040516105c8919061425e565b60405180910390f35b3480156105dd57600080fd5b506105e6611c6e565b6040516105f39190613ed0565b60405180910390f35b34801561060857600080fd5b50610623600480360381019061061e9190613b5d565b611c98565b604051610630919061425e565b60405180910390f35b34801561064557600080fd5b50610660600480360381019061065b9190613ad2565b611cc9565b60405161066e929190614279565b60405180910390f35b34801561068357600080fd5b5061069e600480360381019061069991906139f4565b611cfb565b005b3480156106ac57600080fd5b506106c760048036038101906106c29190613b5d565b611f53565b005b3480156106d557600080fd5b506106f060048036038101906106eb9190613925565b61233e565b005b3480156106fe57600080fd5b50610707612436565b005b600061010080549050905090565b6000806101008481548110610755577f4e487b7100000000000000000000000000000000000000000000000000000000600052603260045260246000fd5b906000526020600020906004020190506000610101600086815260200190815260200160002060008573ffffffffffffffffffffffffffffffffffffffff1673ffffffffffffffffffffffffffffffffffffffff168152602001908152602001600020905060008260030154905060008360000160009054906101000a900473ffffffffffffffffffffffffffffffffffffffff1673ffffffffffffffffffffffffffffffffffffffff166370a08231306040518263ffffffff1660e01b81526004016108229190613ed0565b60206040518083038186803b15801561083a57600080fd5b505afa15801561084e573d6000803e3d6000fd5b505050506040513d601f19601f820116820180604052508101906108729190613aa9565b9050836002015443118015610888575060008114155b15610a0957600061089d856002015443611c98565b905060006108e1610102546108d388600101546108c560fc548761281790919063ffffffff16565b61281790919063ffffffff16565b61282d90919063ffffffff16565b9050600060fb60009054906101000a900473ffffffffffffffffffffffffffffffffffffffff1673ffffffffffffffffffffffffffffffffffffffff166370a0823160ff60009054906101000a900473ffffffffffffffffffffffffffffffffffffffff166040518263ffffffff1660e01b81526004016109629190613ed0565b60206040518083038186803b15801561097a57600080fd5b505afa15801561098e573d6000803e3d6000fd5b505050506040513d601f19601f820116820180604052508101906109b29190613aa9565b90508082106109bf578091505b610a036109f4856109e66c0c9f2c9cd04674edea400000008661281790919063ffffffff16565b61282d90919063ffffffff16565b8661284390919063ffffffff16565b94505050505b610a558360010154610a476c0c9f2c9cd04674edea40000000610a3986886000015461281790919063ffffffff16565b61282d90919063ffffffff16565b61285990919063ffffffff16565b94505050505092915050565b6101008181548110610a7257600080fd5b90600052602060002090600402016000915090508060000160009054906101000a900473ffffffffffffffffffffffffffffffffffffffff16908060010154908060020154908060030154905084565b6101025481565b610ad161286f565b73ffffffffffffffffffffffffffffffffffffffff16610aef611c6e565b73ffffffffffffffffffffffffffffffffffffffff1614610b45576040517f08c379a0000000000000000000000000000000000000000000000000000000008152600401610b3c9061415e565b60405180910390fd5b8015610b5457610b53611996565b5b6000610103544311610b695761010354610b6b565b435b9050610b83846101025461284390919063ffffffff16565b6101028190555061010060405180608001604052808573ffffffffffffffffffffffffffffffffffffffff1681526020018681526020018381526020016000815250908060018154018082558091505060019003906000526020600020906004020160009091909190915060008201518160000160006101000a81548173ffffffffffffffffffffffffffffffffffffffff021916908373ffffffffffffffffffffffffffffffffffffffff160217905550602082015181600101556040820151816002015560608201518160030155505050505050565b610c6361286f565b73ffffffffffffffffffffffffffffffffffffffff16610c81611c6e565b73ffffffffffffffffffffffffffffffffffffffff1614610cd7576040517f08c379a0000000000000000000000000000000000000000000000000000000008152600401610cce9061415e565b60405180910390fd5b8060fe60006101000a81548173ffffffffffffffffffffffffffffffffffffffff021916908373ffffffffffffffffffffffffffffffffffffffff16021790555050565b610d2481612877565b610d3f816040518060200160405280600081525060006128f6565b50565b610d4a61286f565b73ffffffffffffffffffffffffffffffffffffffff16610d68611c6e565b73ffffffffffffffffffffffffffffffffffffffff1614610dbe576040517f08c379a0000000000000000000000000000000000000000000000000000000008152600401610db59061415e565b60405180910390fd5b610dc6612ac7565b565b60fb60009054906101000a900473ffffffffffffffffffffffffffffffffffffffff1681565b610df66118f3565b15610e36576040517f08c379a0000000000000000000000000000000000000000000000000000000008152600401610e2d906140fe565b60405180910390fd5b60006101008381548110610e73577f4e487b7100000000000000000000000000000000000000000000000000000000600052603260045260246000fd5b906000526020600020906004020190506000610101600085815260200190815260200160002060003373ffffffffffffffffffffffffffffffffffffffff1673ffffffffffffffffffffffffffffffffffffffff16815260200190815260200160002090508281600001541015610f1f576040517f08c379a0000000000000000000000000000000000000000000000000000000008152600401610f16906141be565b60405180910390fd5b610f2884611467565b6000610f7a8260010154610f6c6c0c9f2c9cd04674edea40000000610f5e8760030154876000015461281790919063ffffffff16565b61282d90919063ffffffff16565b61285990919063ffffffff16565b90506000811115610f9057610f8f3382612b69565b5b600084111561100857610fb084836000015461285990919063ffffffff16565b826000018190555061100733858560000160009054906101000a900473ffffffffffffffffffffffffffffffffffffffff1673ffffffffffffffffffffffffffffffffffffffff16612c419092919063ffffffff16565b5b6110426c0c9f2c9cd04674edea400000006110348560030154856000015461281790919063ffffffff16565b61282d90919063ffffffff16565b8260010181905550843373ffffffffffffffffffffffffffffffffffffffff167ff279e6a1f5e320cca91135676d9cb6e44ca8a08c0b88342bcdb1144f6511b56886604051611091919061425e565b60405180910390a35050505050565b600073ffffffffffffffffffffffffffffffffffffffff1660fe60009054906101000a900473ffffffffffffffffffffffffffffffffffffffff1673ffffffffffffffffffffffffffffffffffffffff161415611132576040517f08c379a00000000000000000000000000000000000000000000000000000000081526004016111299061423e565b60405180910390fd5b6000610100828154811061116f577f4e487b7100000000000000000000000000000000000000000000000000000000600052603260045260246000fd5b9060005260206000209060040201905060008160000160009054906101000a900473ffffffffffffffffffffffffffffffffffffffff16905060008173ffffffffffffffffffffffffffffffffffffffff166370a08231306040518263ffffffff1660e01b81526004016111e39190613ed0565b60206040518083038186803b1580156111fb57600080fd5b505afa15801561120f573d6000803e3d6000fd5b505050506040513d601f19601f820116820180604052508101906112339190613aa9565b905061128260fe60009054906101000a900473ffffffffffffffffffffffffffffffffffffffff16828473ffffffffffffffffffffffffffffffffffffffff16612cc79092919063ffffffff16565b600060fe60009054906101000a900473ffffffffffffffffffffffffffffffffffffffff1673ffffffffffffffffffffffffffffffffffffffff1663ce5494bb846040518263ffffffff1660e01b81526004016112df9190613fc6565b602060405180830381600087803b1580156112f957600080fd5b505af115801561130d573d6000803e3d6000fd5b505050506040513d601f19601f8201168201806040525081019061133191906139cb565b90508073ffffffffffffffffffffffffffffffffffffffff166370a08231306040518263ffffffff1660e01b815260040161136c9190613ed0565b60206040518083038186803b15801561138457600080fd5b505afa158015611398573d6000803e3d6000fd5b505050506040513d601f19601f820116820180604052508101906113bc9190613aa9565b82146113fd576040517f08c379a00000000000000000000000000000000000000000000000000000000081526004016113f4906141fe565b60405180910390fd5b808460000160006101000a81548173ffffffffffffffffffffffffffffffffffffffff021916908373ffffffffffffffffffffffffffffffffffffffff1602179055505050505050565b6101035481565b61145782612877565b611463828260016128f6565b5050565b600061010082815481106114a4577f4e487b7100000000000000000000000000000000000000000000000000000000600052603260045260246000fd5b90600052602060002090600402019050806002015443116114c55750611720565b60008160000160009054906101000a900473ffffffffffffffffffffffffffffffffffffffff1673ffffffffffffffffffffffffffffffffffffffff166370a08231306040518263ffffffff1660e01b81526004016115249190613ed0565b60206040518083038186803b15801561153c57600080fd5b505afa158015611550573d6000803e3d6000fd5b505050506040513d601f19601f820116820180604052508101906115749190613aa9565b9050600081141561158f574382600201819055505050611720565b600061159f836002015443611c98565b905060006115e3610102546115d586600101546115c760fc548761281790919063ffffffff16565b61281790919063ffffffff16565b61282d90919063ffffffff16565b9050600060fb60009054906101000a900473ffffffffffffffffffffffffffffffffffffffff1673ffffffffffffffffffffffffffffffffffffffff166370a0823160ff60009054906101000a900473ffffffffffffffffffffffffffffffffffffffff166040518263ffffffff1660e01b81526004016116649190613ed0565b60206040518083038186803b15801561167c57600080fd5b505afa158015611690573d6000803e3d6000fd5b505050506040513d601f19601f820116820180604052508101906116b49190613aa9565b90508082106116c1578091505b6117096116f6856116e86c0c9f2c9cd04674edea400000008661281790919063ffffffff16565b61282d90919063ffffffff16565b866003015461284390919063ffffffff16565b856003018190555043856002018190555050505050505b50565b60ff60009054906101000a900473ffffffffffffffffffffffffffffffffffffffff1681565b6117516118f3565b611790576040517f08c379a00000000000000000000000000000000000000000000000000000000081526004016117879061407e565b60405180910390fd5b600061010082815481106117cd577f4e487b7100000000000000000000000000000000000000000000000000000000600052603260045260246000fd5b906000526020600020906004020190506000610101600084815260200190815260200160002060003373ffffffffffffffffffffffffffffffffffffffff1673ffffffffffffffffffffffffffffffffffffffff1681526020019081526020016000209050600081600001549050600082600001819055506000826001018190555061189e33828560000160009054906101000a900473ffffffffffffffffffffffffffffffffffffffff1673ffffffffffffffffffffffffffffffffffffffff16612c419092919063ffffffff16565b833373ffffffffffffffffffffffffffffffffffffffff167fbb757047c2b5f3974fe26b7c10f732e7bce710b0952a71082702781e62ae0595836040516118e5919061425e565b60405180910390a350505050565b6000603360009054906101000a900460ff16905090565b60fc5481565b61191861286f565b73ffffffffffffffffffffffffffffffffffffffff16611936611c6e565b73ffffffffffffffffffffffffffffffffffffffff161461198c576040517f08c379a00000000000000000000000000000000000000000000000000000000081526004016119839061415e565b60405180910390fd5b8060fd8190555050565b600061010080549050905060005b818110156119c6576119b581611467565b806119bf9061459c565b90506119a4565b5050565b6119d261286f565b73ffffffffffffffffffffffffffffffffffffffff166119f0611c6e565b73ffffffffffffffffffffffffffffffffffffffff1614611a46576040517f08c379a0000000000000000000000000000000000000000000000000000000008152600401611a3d9061415e565b60405180910390fd5b8015611a5557611a54611996565b5b60006101008481548110611a92577f4e487b7100000000000000000000000000000000000000000000000000000000600052603260045260246000fd5b9060005260206000209060040201600101549050826101008581548110611ae2577f4e487b7100000000000000000000000000000000000000000000000000000000600052603260045260246000fd5b906000526020600020906004020160010181905550828114611b2e57611b2683611b18836101025461285990919063ffffffff16565b61284390919063ffffffff16565b610102819055505b50505050565b611b3c61286f565b73ffffffffffffffffffffffffffffffffffffffff16611b5a611c6e565b73ffffffffffffffffffffffffffffffffffffffff1614611bb0576040517f08c379a0000000000000000000000000000000000000000000000000000000008152600401611ba79061415e565b60405180910390fd5b611bba6000612e25565b565b60fe60009054906101000a900473ffffffffffffffffffffffffffffffffffffffff1681565b611bea61286f565b73ffffffffffffffffffffffffffffffffffffffff16611c08611c6e565b73ffffffffffffffffffffffffffffffffffffffff1614611c5e576040517f08c379a0000000000000000000000000000000000000000000000000000000008152600401611c559061415e565b60405180910390fd5b611c66612eeb565b565b60fd5481565b600060c960009054906101000a900473ffffffffffffffffffffffffffffffffffffffff16905090565b6000611cc160fd54611cb3858561285990919063ffffffff16565b61281790919063ffffffff16565b905092915050565b610101602052816000526040600020602052806000526040600020600091509150508060000154908060010154905082565b600060019054906101000a900460ff1680611d21575060008054906101000a900460ff16155b611d60576040517f08c379a0000000000000000000000000000000000000000000000000000000008152600401611d579061411e565b60405180910390fd5b60008060019054906101000a900460ff161590508015611db0576001600060016101000a81548160ff02191690831515021790555060016000806101000a81548160ff0219169083151502179055505b611db8612f8e565b8460fb60006101000a81548173ffffffffffffffffffffffffffffffffffffffff021916908373ffffffffffffffffffffffffffffffffffffffff1602179055508360fc8190555082610103819055508160ff60006101000a81548173ffffffffffffffffffffffffffffffffffffffff021916908373ffffffffffffffffffffffffffffffffffffffff16021790555061010060405180608001604052808773ffffffffffffffffffffffffffffffffffffffff16815260200160c881526020016101035481526020016000815250908060018154018082558091505060019003906000526020600020906004020160009091909190915060008201518160000160006101000a81548173ffffffffffffffffffffffffffffffffffffffff021916908373ffffffffffffffffffffffffffffffffffffffff1602179055506020820151816001015560408201518160020155606082015181600301555050620f424060fd8190555060c8610102819055508015611f4c5760008060016101000a81548160ff0219169083151502179055505b5050505050565b611f5b6118f3565b15611f9b576040517f08c379a0000000000000000000000000000000000000000000000000000000008152600401611f92906140fe565b60405180910390fd5b60006101008381548110611fd8577f4e487b7100000000000000000000000000000000000000000000000000000000600052603260045260246000fd5b906000526020600020906004020190506000610101600085815260200190815260200160002060003373ffffffffffffffffffffffffffffffffffffffff1673ffffffffffffffffffffffffffffffffffffffff168152602001908152602001600020905061204684611467565b6000816000015411156120bd5760006120a582600101546120976c0c9f2c9cd04674edea400000006120898760030154876000015461281790919063ffffffff16565b61282d90919063ffffffff16565b61285990919063ffffffff16565b905060008111156120bb576120ba3382612b69565b5b505b60008311156122a75760008260000160009054906101000a900473ffffffffffffffffffffffffffffffffffffffff1673ffffffffffffffffffffffffffffffffffffffff166370a08231306040518263ffffffff1660e01b81526004016121259190613ed0565b60206040518083038186803b15801561213d57600080fd5b505afa158015612151573d6000803e3d6000fd5b505050506040513d601f19601f820116820180604052508101906121759190613aa9565b90506121c83330868660000160009054906101000a900473ffffffffffffffffffffffffffffffffffffffff1673ffffffffffffffffffffffffffffffffffffffff16613077909392919063ffffffff16565b61229d61228a828560000160009054906101000a900473ffffffffffffffffffffffffffffffffffffffff1673ffffffffffffffffffffffffffffffffffffffff166370a08231306040518263ffffffff1660e01b815260040161222c9190613ed0565b60206040518083038186803b15801561224457600080fd5b505afa158015612258573d6000803e3d6000fd5b505050506040513d601f19601f8201168201806040525081019061227c9190613aa9565b61285990919063ffffffff16565b836000015461284390919063ffffffff16565b8260000181905550505b6122e16c0c9f2c9cd04674edea400000006122d38460030154846000015461281790919063ffffffff16565b61282d90919063ffffffff16565b8160010181905550833373ffffffffffffffffffffffffffffffffffffffff167f90890809c654f11d6e72a28fa60149770a0d11ec6c92319d6ceb2bb0a4ea1a1585604051612330919061425e565b60405180910390a350505050565b61234661286f565b73ffffffffffffffffffffffffffffffffffffffff16612364611c6e565b73ffffffffffffffffffffffffffffffffffffffff16146123ba576040517f08c379a00000000000000000000000000000000000000000000000000000000081526004016123b19061415e565b60405180910390fd5b600073ffffffffffffffffffffffffffffffffffffffff168173ffffffffffffffffffffffffffffffffffffffff16141561242a576040517f08c379a0000000000000000000000000000000000000000000000000000000008152600401612421906140be565b60405180910390fd5b61243381612e25565b50565b61243e6118f3565b1561247e576040517f08c379a0000000000000000000000000000000000000000000000000000000008152600401612475906140fe565b60405180910390fd5b60006101006000815481106124bc577f4e487b7100000000000000000000000000000000000000000000000000000000600052603260045260246000fd5b906000526020600020906004020190506000610101600080815260200190815260200160002060003373ffffffffffffffffffffffffffffffffffffffff1673ffffffffffffffffffffffffffffffffffffffff168152602001908152602001600020905061252b6000611467565b60008160000154111561281357600061258a826001015461257c6c0c9f2c9cd04674edea4000000061256e8760030154876000015461281790919063ffffffff16565b61282d90919063ffffffff16565b61285990919063ffffffff16565b905060008360000160009054906101000a900473ffffffffffffffffffffffffffffffffffffffff1673ffffffffffffffffffffffffffffffffffffffff166370a08231306040518263ffffffff1660e01b81526004016125eb9190613ed0565b60206040518083038186803b15801561260357600080fd5b505afa158015612617573d6000803e3d6000fd5b505050506040513d601f19601f8201168201806040525081019061263b9190613aa9565b90506000821115612651576126503083612b69565b5b612726612713828660000160009054906101000a900473ffffffffffffffffffffffffffffffffffffffff1673ffffffffffffffffffffffffffffffffffffffff166370a08231306040518263ffffffff1660e01b81526004016126b59190613ed0565b60206040518083038186803b1580156126cd57600080fd5b505afa1580156126e1573d6000803e3d6000fd5b505050506040513d601f19601f820116820180604052508101906127059190613aa9565b61285990919063ffffffff16565b846000015461284390919063ffffffff16565b83600001819055506127686c0c9f2c9cd04674edea4000000061275a8660030154866000015461281790919063ffffffff16565b61282d90919063ffffffff16565b836001018190555060003373ffffffffffffffffffffffffffffffffffffffff167ff279e6a1f5e320cca91135676d9cb6e44ca8a08c0b88342bcdb1144f6511b568846040516127b8919061425e565b60405180910390a360003373ffffffffffffffffffffffffffffffffffffffff167f90890809c654f11d6e72a28fa60149770a0d11ec6c92319d6ceb2bb0a4ea1a1584604051612808919061425e565b60405180910390a350505b5050565b6000818361282591906143b1565b905092915050565b6000818361283b9190614380565b905092915050565b60008183612851919061432a565b905092915050565b60008183612867919061440b565b905092915050565b600033905090565b61287f61286f565b73ffffffffffffffffffffffffffffffffffffffff1661289d611c6e565b73ffffffffffffffffffffffffffffffffffffffff16146128f3576040517f08c379a00000000000000000000000000000000000000000000000000000000081526004016128ea9061415e565b60405180910390fd5b50565b6000612900613100565b905061290b84613157565b6000835111806129185750815b15612929576129278484613210565b505b60006129577f4910fdfa16fed3260ed0e7147f7cc6da11a60208b5b9406d12a635614ffd914360001b6132f4565b90508060000160009054906101000a900460ff16612ac05760018160000160006101000a81548160ff021916908315150217905550612a2385836040516024016129a19190613ed0565b6040516020818303038152906040527f3659cfe6000000000000000000000000000000000000000000000000000000007bffffffffffffffffffffffffffffffffffffffffffffffffffffffff19166020820180517bffffffffffffffffffffffffffffffffffffffffffffffffffffffff8381831617835250505050613210565b5060008160000160006101000a81548160ff021916908315150217905550612a49613100565b73ffffffffffffffffffffffffffffffffffffffff168273ffffffffffffffffffffffffffffffffffffffff1614612ab6576040517f08c379a0000000000000000000000000000000000000000000000000000000008152600401612aad9061409e565b60405180910390fd5b612abf856132fe565b5b5050505050565b612acf6118f3565b612b0e576040517f08c379a0000000000000000000000000000000000000000000000000000000008152600401612b059061407e565b60405180910390fd5b6000603360006101000a81548160ff0219169083151502179055507f5db9ee0a495bf2e6ff9c91a7834c1ba4fdd244a5e8aa4e537bd38aeae4b073aa612b5261286f565b604051612b5f9190613ed0565b60405180910390a1565b60ff60009054906101000a900473ffffffffffffffffffffffffffffffffffffffff1673ffffffffffffffffffffffffffffffffffffffff16637b2ca45e838360fb60009054906101000a900473ffffffffffffffffffffffffffffffffffffffff166040518463ffffffff1660e01b8152600401612bea93929190613f74565b602060405180830381600087803b158015612c0457600080fd5b505af1158015612c18573d6000803e3d6000fd5b505050506040513d601f19601f82011682018060405250810190612c3c9190613aa9565b505050565b612cc28363a9059cbb60e01b8484604051602401612c60929190613f4b565b604051602081830303815290604052907bffffffffffffffffffffffffffffffffffffffffffffffffffffffff19166020820180517bffffffffffffffffffffffffffffffffffffffffffffffffffffffff838183161783525050505061334d565b505050565b6000811480612d60575060008373ffffffffffffffffffffffffffffffffffffffff1663dd62ed3e30856040518363ffffffff1660e01b8152600401612d0e929190613eeb565b60206040518083038186803b158015612d2657600080fd5b505afa158015612d3a573d6000803e3d6000fd5b505050506040513d601f19601f82011682018060405250810190612d5e9190613aa9565b145b612d9f576040517f08c379a0000000000000000000000000000000000000000000000000000000008152600401612d969061421e565b60405180910390fd5b612e208363095ea7b360e01b8484604051602401612dbe929190613f4b565b604051602081830303815290604052907bffffffffffffffffffffffffffffffffffffffffffffffffffffffff19166020820180517bffffffffffffffffffffffffffffffffffffffffffffffffffffffff838183161783525050505061334d565b505050565b600060c960009054906101000a900473ffffffffffffffffffffffffffffffffffffffff1690508160c960006101000a81548173ffffffffffffffffffffffffffffffffffffffff021916908373ffffffffffffffffffffffffffffffffffffffff1602179055508173ffffffffffffffffffffffffffffffffffffffff168173ffffffffffffffffffffffffffffffffffffffff167f8be0079c531659141344cd1fd0a4f28419497f9722a3daafe3b4186f6b6457e060405160405180910390a35050565b612ef36118f3565b15612f33576040517f08c379a0000000000000000000000000000000000000000000000000000000008152600401612f2a906140fe565b60405180910390fd5b6001603360006101000a81548160ff0219169083151502179055507f62e78cea01bee320cd4e420270b5ea74000d11b0c9f74754ebdbfc544b05a258612f7761286f565b604051612f849190613ed0565b60405180910390a1565b600060019054906101000a900460ff1680612fb4575060008054906101000a900460ff16155b612ff3576040517f08c379a0000000000000000000000000000000000000000000000000000000008152600401612fea9061411e565b60405180910390fd5b60008060019054906101000a900460ff161590508015613043576001600060016101000a81548160ff02191690831515021790555060016000806101000a81548160ff0219169083151502179055505b61304b613414565b6130536134ed565b80156130745760008060016101000a81548160ff0219169083151502179055505b50565b6130fa846323b872dd60e01b85858560405160240161309893929190613f14565b604051602081830303815290604052907bffffffffffffffffffffffffffffffffffffffffffffffffffffffff19166020820180517bffffffffffffffffffffffffffffffffffffffffffffffffffffffff838183161783525050505061334d565b50505050565b600061312e7f360894a13ba1a3210667c828492db98dca3e2076cc3735a920a3ca505d382bbc60001b6135d6565b60000160009054906101000a900473ffffffffffffffffffffffffffffffffffffffff16905090565b613160816135e0565b61319f576040517f08c379a00000000000000000000000000000000000000000000000000000000081526004016131969061413e565b60405180910390fd5b806131cc7f360894a13ba1a3210667c828492db98dca3e2076cc3735a920a3ca505d382bbc60001b6135d6565b60000160006101000a81548173ffffffffffffffffffffffffffffffffffffffff021916908373ffffffffffffffffffffffffffffffffffffffff16021790555050565b606061321b836135e0565b61325a576040517f08c379a00000000000000000000000000000000000000000000000000000000081526004016132519061417e565b60405180910390fd5b6000808473ffffffffffffffffffffffffffffffffffffffff16846040516132829190613eb9565b600060405180830381855af49150503d80600081146132bd576040519150601f19603f3d011682016040523d82523d6000602084013e6132c2565b606091505b50915091506132ea8282604051806060016040528060278152602001614aa5602791396135f3565b9250505092915050565b6000819050919050565b61330781613157565b8073ffffffffffffffffffffffffffffffffffffffff167fbc7cd75a20ee27fd9adebab32041f755214dbc6bffa90cc0225b39da2e5c2d3b60405160405180910390a250565b60006133af826040518060400160405280602081526020017f5361666545524332303a206c6f772d6c6576656c2063616c6c206661696c65648152508573ffffffffffffffffffffffffffffffffffffffff1661365a9092919063ffffffff16565b905060008151111561340f57808060200190518101906133cf91906139a2565b61340e576040517f08c379a0000000000000000000000000000000000000000000000000000000008152600401613405906141de565b60405180910390fd5b5b505050565b600060019054906101000a900460ff168061343a575060008054906101000a900460ff16155b613479576040517f08c379a00000000000000000000000000000000000000000000000000000000081526004016134709061411e565b60405180910390fd5b60008060019054906101000a900460ff1615905080156134c9576001600060016101000a81548160ff02191690831515021790555060016000806101000a81548160ff0219169083151502179055505b80156134ea5760008060016101000a81548160ff0219169083151502179055505b50565b600060019054906101000a900460ff1680613513575060008054906101000a900460ff16155b613552576040517f08c379a00000000000000000000000000000000000000000000000000000000081526004016135499061411e565b60405180910390fd5b60008060019054906101000a900460ff1615905080156135a2576001600060016101000a81548160ff02191690831515021790555060016000806101000a81548160ff0219169083151502179055505b6135b26135ad61286f565b612e25565b80156135d35760008060016101000a81548160ff0219169083151502179055505b50565b6000819050919050565b600080823b905060008111915050919050565b6060831561360357829050613653565b6000835111156136165782518084602001fd5b816040517f08c379a000000000000000000000000000000000000000000000000000000000815260040161364a919061405c565b60405180910390fd5b9392505050565b60606136698484600085613672565b90509392505050565b6060824710156136b7576040517f08c379a00000000000000000000000000000000000000000000000000000000081526004016136ae906140de565b60405180910390fd5b6136c085613786565b6136ff576040517f08c379a00000000000000000000000000000000000000000000000000000000081526004016136f69061419e565b60405180910390fd5b6000808673ffffffffffffffffffffffffffffffffffffffff1685876040516137289190613eb9565b60006040518083038185875af1925050503d8060008114613765576040519150601f19603f3d011682016040523d82523d6000602084013e61376a565b606091505b509150915061377a828286613799565b92505050949350505050565b600080823b905060008111915050919050565b606083156137a9578290506137f9565b6000835111156137bc5782518084602001fd5b816040517f08c379a00000000000000000000000000000000000000000000000000000000081526004016137f0919061405c565b60405180910390fd5b9392505050565b600061381361380e846142c7565b6142a2565b90508281526020810184848401111561382b57600080fd5b613836848285614529565b509392505050565b60008135905061384d81614a1a565b92915050565b60008135905061386281614a31565b92915050565b60008151905061387781614a31565b92915050565b600082601f83011261388e57600080fd5b813561389e848260208601613800565b91505092915050565b6000813590506138b681614a48565b92915050565b6000815190506138cb81614a48565b92915050565b6000813590506138e081614a5f565b92915050565b6000813590506138f581614a76565b92915050565b60008135905061390a81614a8d565b92915050565b60008151905061391f81614a8d565b92915050565b60006020828403121561393757600080fd5b60006139458482850161383e565b91505092915050565b6000806040838503121561396157600080fd5b600061396f8582860161383e565b925050602083013567ffffffffffffffff81111561398c57600080fd5b6139988582860161387d565b9150509250929050565b6000602082840312156139b457600080fd5b60006139c284828501613868565b91505092915050565b6000602082840312156139dd57600080fd5b60006139eb848285016138bc565b91505092915050565b60008060008060808587031215613a0a57600080fd5b6000613a18878288016138a7565b9450506020613a29878288016138fb565b9350506040613a3a878288016138fb565b9250506060613a4b878288016138e6565b91505092959194509250565b600060208284031215613a6957600080fd5b6000613a77848285016138d1565b91505092915050565b600060208284031215613a9257600080fd5b6000613aa0848285016138fb565b91505092915050565b600060208284031215613abb57600080fd5b6000613ac984828501613910565b91505092915050565b60008060408385031215613ae557600080fd5b6000613af3858286016138fb565b9250506020613b048582860161383e565b9150509250929050565b600080600060608486031215613b2357600080fd5b6000613b31868287016138fb565b9350506020613b42868287016138a7565b9250506040613b5386828701613853565b9150509250925092565b60008060408385031215613b7057600080fd5b6000613b7e858286016138fb565b9250506020613b8f858286016138fb565b9150509250929050565b600080600060608486031215613bae57600080fd5b6000613bbc868287016138fb565b9350506020613bcd868287016138fb565b9250506040613bde86828701613853565b9150509250925092565b613bf18161443f565b82525050565b613c0081614451565b82525050565b6000613c11826142f8565b613c1b818561430e565b9350613c2b818560208601614538565b80840191505092915050565b613c40816144bd565b82525050565b613c4f816144e1565b82525050565b613c5e81614505565b82525050565b6000613c6f82614303565b613c798185614319565b9350613c89818560208601614538565b613c9281614672565b840191505092915050565b6000613caa601483614319565b9150613cb582614683565b602082019050919050565b6000613ccd602f83614319565b9150613cd8826146ac565b604082019050919050565b6000613cf0602683614319565b9150613cfb826146fb565b604082019050919050565b6000613d13602683614319565b9150613d1e8261474a565b604082019050919050565b6000613d36601083614319565b9150613d4182614799565b602082019050919050565b6000613d59602e83614319565b9150613d64826147c2565b604082019050919050565b6000613d7c602d83614319565b9150613d8782614811565b604082019050919050565b6000613d9f602083614319565b9150613daa82614860565b602082019050919050565b6000613dc2602683614319565b9150613dcd82614889565b604082019050919050565b6000613de5601d83614319565b9150613df0826148d8565b602082019050919050565b6000613e08601283614319565b9150613e1382614901565b602082019050919050565b6000613e2b602a83614319565b9150613e368261492a565b604082019050919050565b6000613e4e600c83614319565b9150613e5982614979565b602082019050919050565b6000613e71603683614319565b9150613e7c826149a2565b604082019050919050565b6000613e94601483614319565b9150613e9f826149f1565b602082019050919050565b613eb3816144b3565b82525050565b6000613ec58284613c06565b915081905092915050565b6000602082019050613ee56000830184613be8565b92915050565b6000604082019050613f006000830185613be8565b613f0d6020830184613be8565b9392505050565b6000606082019050613f296000830186613be8565b613f366020830185613be8565b613f436040830184613eaa565b949350505050565b6000604082019050613f606000830185613be8565b613f6d6020830184613eaa565b9392505050565b6000606082019050613f896000830186613be8565b613f966020830185613eaa565b613fa36040830184613c37565b949350505050565b6000602082019050613fc06000830184613bf7565b92915050565b6000602082019050613fdb6000830184613c37565b92915050565b6000608082019050613ff66000830187613c37565b6140036020830186613eaa565b6140106040830185613eaa565b61401d6060830184613eaa565b95945050505050565b600060208201905061403b6000830184613c46565b92915050565b60006020820190506140566000830184613c55565b92915050565b600060208201905081810360008301526140768184613c64565b905092915050565b6000602082019050818103600083015261409781613c9d565b9050919050565b600060208201905081810360008301526140b781613cc0565b9050919050565b600060208201905081810360008301526140d781613ce3565b9050919050565b600060208201905081810360008301526140f781613d06565b9050919050565b6000602082019050818103600083015261411781613d29565b9050919050565b6000602082019050818103600083015261413781613d4c565b9050919050565b6000602082019050818103600083015261415781613d6f565b9050919050565b6000602082019050818103600083015261417781613d92565b9050919050565b6000602082019050818103600083015261419781613db5565b9050919050565b600060208201905081810360008301526141b781613dd8565b9050919050565b600060208201905081810360008301526141d781613dfb565b9050919050565b600060208201905081810360008301526141f781613e1e565b9050919050565b6000602082019050818103600083015261421781613e41565b9050919050565b6000602082019050818103600083015261423781613e64565b9050919050565b6000602082019050818103600083015261425781613e87565b9050919050565b60006020820190506142736000830184613eaa565b92915050565b600060408201905061428e6000830185613eaa565b61429b6020830184613eaa565b9392505050565b60006142ac6142bd565b90506142b8828261456b565b919050565b6000604051905090565b600067ffffffffffffffff8211156142e2576142e1614643565b5b6142eb82614672565b9050602081019050919050565b600081519050919050565b600081519050919050565b600081905092915050565b600082825260208201905092915050565b6000614335826144b3565b9150614340836144b3565b9250827fffffffffffffffffffffffffffffffffffffffffffffffffffffffffffffffff03821115614375576143746145e5565b5b828201905092915050565b600061438b826144b3565b9150614396836144b3565b9250826143a6576143a5614614565b5b828204905092915050565b60006143bc826144b3565b91506143c7836144b3565b9250817fffffffffffffffffffffffffffffffffffffffffffffffffffffffffffffffff0483118215151615614400576143ff6145e5565b5b828202905092915050565b6000614416826144b3565b9150614421836144b3565b925082821015614434576144336145e5565b5b828203905092915050565b600061444a82614493565b9050919050565b60008115159050919050565b60006144688261443f565b9050919050565b600061447a8261443f565b9050919050565b600061448c8261443f565b9050919050565b600073ffffffffffffffffffffffffffffffffffffffff82169050919050565b6000819050919050565b60006144c8826144cf565b9050919050565b60006144da82614493565b9050919050565b60006144ec826144f3565b9050919050565b60006144fe82614493565b9050919050565b600061451082614517565b9050919050565b600061452282614493565b9050919050565b82818337600083830152505050565b60005b8381101561455657808201518184015260208101905061453b565b83811115614565576000848401525b50505050565b61457482614672565b810181811067ffffffffffffffff8211171561459357614592614643565b5b80604052505050565b60006145a7826144b3565b91507fffffffffffffffffffffffffffffffffffffffffffffffffffffffffffffffff8214156145da576145d96145e5565b5b600182019050919050565b7f4e487b7100000000000000000000000000000000000000000000000000000000600052601160045260246000fd5b7f4e487b7100000000000000000000000000000000000000000000000000000000600052601260045260246000fd5b7f4e487b7100000000000000000000000000000000000000000000000000000000600052604160045260246000fd5b6000601f19601f8301169050919050565b7f5061757361626c653a206e6f7420706175736564000000000000000000000000600082015250565b7f45524331393637557067726164653a207570677261646520627265616b73206660008201527f7572746865722075706772616465730000000000000000000000000000000000602082015250565b7f4f776e61626c653a206e6577206f776e657220697320746865207a65726f206160008201527f6464726573730000000000000000000000000000000000000000000000000000602082015250565b7f416464726573733a20696e73756666696369656e742062616c616e636520666f60008201527f722063616c6c0000000000000000000000000000000000000000000000000000602082015250565b7f5061757361626c653a2070617573656400000000000000000000000000000000600082015250565b7f496e697469616c697a61626c653a20636f6e747261637420697320616c72656160008201527f647920696e697469616c697a6564000000000000000000000000000000000000602082015250565b7f455243313936373a206e657720696d706c656d656e746174696f6e206973206e60008201527f6f74206120636f6e747261637400000000000000000000000000000000000000602082015250565b7f4f776e61626c653a2063616c6c6572206973206e6f7420746865206f776e6572600082015250565b7f416464726573733a2064656c65676174652063616c6c20746f206e6f6e2d636f60008201527f6e74726163740000000000000000000000000000000000000000000000000000602082015250565b7f416464726573733a2063616c6c20746f206e6f6e2d636f6e7472616374000000600082015250565b7f77697468647261773a206e6f7420676f6f640000000000000000000000000000600082015250565b7f5361666545524332303a204552433230206f7065726174696f6e20646964206e60008201527f6f74207375636365656400000000000000000000000000000000000000000000602082015250565b7f6d6967726174653a206261640000000000000000000000000000000000000000600082015250565b7f5361666545524332303a20617070726f76652066726f6d206e6f6e2d7a65726f60008201527f20746f206e6f6e2d7a65726f20616c6c6f77616e636500000000000000000000602082015250565b7f6d6967726174653a206e6f206d69677261746f72000000000000000000000000600082015250565b614a238161443f565b8114614a2e57600080fd5b50565b614a3a81614451565b8114614a4557600080fd5b50565b614a518161445d565b8114614a5c57600080fd5b50565b614a688161446f565b8114614a7357600080fd5b50565b614a7f81614481565b8114614a8a57600080fd5b50565b614a96816144b3565b8114614aa157600080fd5b5056fe416464726573733a206c6f772d6c6576656c2064656c65676174652063616c6c206661696c6564a26469706673582212204377329ec34030ddd3770b92c6ffb8f4d04ca588eff920e56dd515b5bc209d9664736f6c63430008020033",
  "linkReferences": {},
  "deployedLinkReferences": {}
}