{
  "_format": "hh-sol-artifact-1",
  "contractName": "MasterRANCE",
  "sourceName": "contracts/Farm1.sol",
  "abi": [
    {
      "anonymous": false,
      "inputs": [
        {
          "indexed": false,
          "internalType": "address",
          "name": "previousAdmin",
          "type": "address"
        },
        {
          "indexed": false,
          "internalType": "address",
          "name": "newAdmin",
          "type": "address"
        }
      ],
      "name": "AdminChanged",
      "type": "event"
    },
    {
      "anonymous": false,
      "inputs": [
        {
          "indexed": true,
          "internalType": "address",
          "name": "beacon",
          "type": "address"
        }
      ],
      "name": "BeaconUpgraded",
      "type": "event"
    },
    {
      "anonymous": false,
      "inputs": [
        {
          "indexed": true,
          "internalType": "address",
          "name": "user",
          "type": "address"
        },
        {
          "indexed": true,
          "internalType": "uint256",
          "name": "pid",
          "type": "uint256"
        },
        {
          "indexed": false,
          "internalType": "uint256",
          "name": "amount",
          "type": "uint256"
        }
      ],
      "name": "Deposit",
      "type": "event"
    },
    {
      "anonymous": false,
      "inputs": [
        {
          "indexed": true,
          "internalType": "address",
          "name": "user",
          "type": "address"
        },
        {
          "indexed": true,
          "internalType": "uint256",
          "name": "pid",
          "type": "uint256"
        },
        {
          "indexed": false,
          "internalType": "uint256",
          "name": "amount",
          "type": "uint256"
        }
      ],
      "name": "EmergencyWithdraw",
      "type": "event"
    },
    {
      "anonymous": false,
      "inputs": [
        {
          "indexed": true,
          "internalType": "address",
          "name": "previousOwner",
          "type": "address"
        },
        {
          "indexed": true,
          "internalType": "address",
          "name": "newOwner",
          "type": "address"
        }
      ],
      "name": "OwnershipTransferred",
      "type": "event"
    },
    {
      "anonymous": false,
      "inputs": [
        {
          "indexed": false,
          "internalType": "address",
          "name": "account",
          "type": "address"
        }
      ],
      "name": "Paused",
      "type": "event"
    },
    {
      "anonymous": false,
      "inputs": [
        {
          "indexed": false,
          "internalType": "address",
          "name": "account",
          "type": "address"
        }
      ],
      "name": "Unpaused",
      "type": "event"
    },
    {
      "anonymous": false,
      "inputs": [
        {
          "indexed": true,
          "internalType": "address",
          "name": "implementation",
          "type": "address"
        }
      ],
      "name": "Upgraded",
      "type": "event"
    },
    {
      "anonymous": false,
      "inputs": [
        {
          "indexed": true,
          "internalType": "address",
          "name": "user",
          "type": "address"
        },
        {
          "indexed": true,
          "internalType": "uint256",
          "name": "pid",
          "type": "uint256"
        },
        {
          "indexed": false,
          "internalType": "uint256",
          "name": "amount",
          "type": "uint256"
        }
      ],
      "name": "Withdraw",
      "type": "event"
    },
    {
      "inputs": [],
      "name": "BONUS_MULTIPLIER",
      "outputs": [
        {
          "internalType": "uint256",
          "name": "",
          "type": "uint256"
        }
      ],
      "stateMutability": "view",
      "type": "function"
    },
    {
      "inputs": [],
      "name": "RANCE",
      "outputs": [
        {
          "internalType": "contract IBEP20",
          "name": "",
          "type": "address"
        }
      ],
      "stateMutability": "view",
      "type": "function"
    },
    {
      "inputs": [],
      "name": "RANCEPerBlock",
      "outputs": [
        {
          "internalType": "uint256",
          "name": "",
          "type": "uint256"
        }
      ],
      "stateMutability": "view",
      "type": "function"
    },
    {
      "inputs": [
        {
          "internalType": "uint256",
          "name": "_allocPoint",
          "type": "uint256"
        },
        {
          "internalType": "contract IBEP20",
          "name": "_lpToken",
          "type": "address"
        },
        {
          "internalType": "bool",
          "name": "_withUpdate",
          "type": "bool"
        }
      ],
      "name": "add",
      "outputs": [],
      "stateMutability": "nonpayable",
      "type": "function"
    },
    {
      "inputs": [],
      "name": "compound",
      "outputs": [],
      "stateMutability": "nonpayable",
      "type": "function"
    },
    {
      "inputs": [
        {
          "internalType": "uint256",
          "name": "_pid",
          "type": "uint256"
        },
        {
          "internalType": "uint256",
          "name": "_amount",
          "type": "uint256"
        }
      ],
      "name": "deposit",
      "outputs": [],
      "stateMutability": "nonpayable",
      "type": "function"
    },
    {
      "inputs": [
        {
          "internalType": "uint256",
          "name": "_pid",
          "type": "uint256"
        }
      ],
      "name": "emergencyWithdraw",
      "outputs": [],
      "stateMutability": "nonpayable",
      "type": "function"
    },
    {
      "inputs": [
        {
          "internalType": "uint256",
          "name": "_from",
          "type": "uint256"
        },
        {
          "internalType": "uint256",
          "name": "_to",
          "type": "uint256"
        }
      ],
      "name": "getMultiplier",
      "outputs": [
        {
          "internalType": "uint256",
          "name": "",
          "type": "uint256"
        }
      ],
      "stateMutability": "view",
      "type": "function"
    },
    {
      "inputs": [
        {
          "internalType": "contract IBEP20",
          "name": "_RANCE",
          "type": "address"
        },
        {
          "internalType": "uint256",
          "name": "_RANCEPerBlock",
          "type": "uint256"
        },
        {
          "internalType": "uint256",
          "name": "_startBlock",
          "type": "uint256"
        },
        {
          "internalType": "contract MasterRANCEWallet",
          "name": "_wallet",
          "type": "address"
        }
      ],
      "name": "initialize",
      "outputs": [],
      "stateMutability": "nonpayable",
      "type": "function"
    },
    {
      "inputs": [],
      "name": "massUpdatePools",
      "outputs": [],
      "stateMutability": "nonpayable",
      "type": "function"
    },
    {
      "inputs": [
        {
          "internalType": "uint256",
          "name": "_pid",
          "type": "uint256"
        }
      ],
      "name": "migrate",
      "outputs": [],
      "stateMutability": "nonpayable",
      "type": "function"
    },
    {
      "inputs": [],
      "name": "migrator",
      "outputs": [
        {
          "internalType": "contract IMigratorChef",
          "name": "",
          "type": "address"
        }
      ],
      "stateMutability": "view",
      "type": "function"
    },
    {
      "inputs": [],
      "name": "owner",
      "outputs": [
        {
          "internalType": "address",
          "name": "",
          "type": "address"
        }
      ],
      "stateMutability": "view",
      "type": "function"
    },
    {
      "inputs": [],
      "name": "pause",
      "outputs": [],
      "stateMutability": "nonpayable",
      "type": "function"
    },
    {
      "inputs": [],
      "name": "paused",
      "outputs": [
        {
          "internalType": "bool",
          "name": "",
          "type": "bool"
        }
      ],
      "stateMutability": "view",
      "type": "function"
    },
    {
      "inputs": [
        {
          "internalType": "uint256",
          "name": "_pid",
          "type": "uint256"
        },
        {
          "internalType": "address",
          "name": "_user",
          "type": "address"
        }
      ],
      "name": "pendingRANCE",
      "outputs": [
        {
          "internalType": "uint256",
          "name": "",
          "type": "uint256"
        }
      ],
      "stateMutability": "view",
      "type": "function"
    },
    {
      "inputs": [
        {
          "internalType": "uint256",
          "name": "",
          "type": "uint256"
        }
      ],
      "name": "poolInfo",
      "outputs": [
        {
          "internalType": "contract IBEP20",
          "name": "lpToken",
          "type": "address"
        },
        {
          "internalType": "uint256",
          "name": "allocPoint",
          "type": "uint256"
        },
        {
          "internalType": "uint256",
          "name": "lastRewardBlock",
          "type": "uint256"
        },
        {
          "internalType": "uint256",
          "name": "accRANCEPerShare",
          "type": "uint256"
        }
      ],
      "stateMutability": "view",
      "type": "function"
    },
    {
      "inputs": [],
      "name": "poolLength",
      "outputs": [
        {
          "internalType": "uint256",
          "name": "",
          "type": "uint256"
        }
      ],
      "stateMutability": "view",
      "type": "function"
    },
    {
      "inputs": [],
      "name": "renounceOwnership",
      "outputs": [],
      "stateMutability": "nonpayable",
      "type": "function"
    },
    {
      "inputs": [
        {
          "internalType": "uint256",
          "name": "_pid",
          "type": "uint256"
        },
        {
          "internalType": "uint256",
          "name": "_allocPoint",
          "type": "uint256"
        },
        {
          "internalType": "bool",
          "name": "_withUpdate",
          "type": "bool"
        }
      ],
      "name": "set",
      "outputs": [],
      "stateMutability": "nonpayable",
      "type": "function"
    },
    {
      "inputs": [
        {
          "internalType": "contract IMigratorChef",
          "name": "_migrator",
          "type": "address"
        }
      ],
      "name": "setMigrator",
      "outputs": [],
      "stateMutability": "nonpayable",
      "type": "function"
    },
    {
      "inputs": [],
      "name": "startBlock",
      "outputs": [
        {
          "internalType": "uint256",
          "name": "",
          "type": "uint256"
        }
      ],
      "stateMutability": "view",
      "type": "function"
    },
    {
      "inputs": [],
      "name": "totalAllocPoint",
      "outputs": [
        {
          "internalType": "uint256",
          "name": "",
          "type": "uint256"
        }
      ],
      "stateMutability": "view",
      "type": "function"
    },
    {
      "inputs": [
        {
          "internalType": "address",
          "name": "newOwner",
          "type": "address"
        }
      ],
      "name": "transferOwnership",
      "outputs": [],
      "stateMutability": "nonpayable",
      "type": "function"
    },
    {
      "inputs": [],
      "name": "unpause",
      "outputs": [],
      "stateMutability": "nonpayable",
      "type": "function"
    },
    {
      "inputs": [
        {
          "internalType": "uint256",
          "name": "multiplierNumber",
          "type": "uint256"
        }
      ],
      "name": "updateMultiplier",
      "outputs": [],
      "stateMutability": "nonpayable",
      "type": "function"
    },
    {
      "inputs": [
        {
          "internalType": "uint256",
          "name": "_pid",
          "type": "uint256"
        }
      ],
      "name": "updatePool",
      "outputs": [],
      "stateMutability": "nonpayable",
      "type": "function"
    },
    {
      "inputs": [
        {
          "internalType": "address",
          "name": "newImplementation",
          "type": "address"
        }
      ],
      "name": "upgradeTo",
      "outputs": [],
      "stateMutability": "nonpayable",
      "type": "function"
    },
    {
      "inputs": [
        {
          "internalType": "address",
          "name": "newImplementation",
          "type": "address"
        },
        {
          "internalType": "bytes",
          "name": "data",
          "type": "bytes"
        }
      ],
      "name": "upgradeToAndCall",
      "outputs": [],
      "stateMutability": "payable",
      "type": "function"
    },
    {
      "inputs": [
        {
          "internalType": "uint256",
          "name": "",
          "type": "uint256"
        },
        {
          "internalType": "address",
          "name": "",
          "type": "address"
        }
      ],
      "name": "userInfo",
      "outputs": [
        {
          "internalType": "uint256",
          "name": "amount",
          "type": "uint256"
        },
        {
          "internalType": "uint256",
          "name": "rewardDebt",
          "type": "uint256"
        }
      ],
      "stateMutability": "view",
      "type": "function"
    },
    {
      "inputs": [],
      "name": "wallet",
      "outputs": [
        {
          "internalType": "contract MasterRANCEWallet",
          "name": "",
          "type": "address"
        }
      ],
      "stateMutability": "view",
      "type": "function"
    },
    {
      "inputs": [
        {
          "internalType": "uint256",
          "name": "_pid",
          "type": "uint256"
        },
        {
          "internalType": "uint256",
          "name": "_amount",
          "type": "uint256"
        }
      ],
      "name": "withdraw",
      "outputs": [],
      "stateMutability": "nonpayable",
      "type": "function"
    }
  ],
  "bytecode": "0x608060405234801561001057600080fd5b50614aa6806100206000396000f3fe6080604052600436106101e35760003560e01c80635c975abb116101025780638aa28550116100955780639e3d87cd116100645780639e3d87cd14610677578063e2bbb158146106a0578063f2fde38b146106c9578063f69e2046146106f2576101e3565b80638aa28550146105a65780638da5cb5b146105d15780638dbb1e3a146105fc57806393f1a40b14610639576101e3565b806364482f79116100d157806364482f7914610524578063715018a61461054d5780637cd07e47146105645780638456cb591461058f576101e3565b80635c975abb1461047c5780635edd6bf7146104a75780635ffe6146146104e4578063630b5ba11461050d576101e3565b80634431a94c1161017a5780634f1ef286116101495780634f1ef286146103e357806351eb05a6146103ff578063521eb273146104285780635312ea8e14610453576101e3565b80634431a94c14610339578063454b06081461036457806348cd4cb11461038d5780634d18c2ad146103b8576101e3565b806323cf3118116101b657806323cf3118146102a75780633659cfe6146102d05780633f4ba83a146102f9578063441a3e7014610310576101e3565b8063081e3eda146101e85780631526fe271461021357806317caf6f1146102535780631eaaa0451461027e575b600080fd5b3480156101f457600080fd5b506101fd610709565b60405161020a9190614203565b60405180910390f35b34801561021f57600080fd5b5061023a60048036038101906102359190613a5c565b610717565b60405161024a9493929190613f86565b60405180910390f35b34801561025f57600080fd5b50610268610778565b6040516102759190614203565b60405180910390f35b34801561028a57600080fd5b506102a560048036038101906102a09190613aea565b61077f565b005b3480156102b357600080fd5b506102ce60048036038101906102c99190613a33565b610911565b005b3480156102dc57600080fd5b506102f760048036038101906102f29190613901565b6109d1565b005b34801561030557600080fd5b5061030e6109f8565b005b34801561031c57600080fd5b5061033760048036038101906103329190613b39565b610a7e565b005b34801561034557600080fd5b5061034e610d30565b60405161035b9190613f6b565b60405180910390f35b34801561037057600080fd5b5061038b60048036038101906103869190613a5c565b610d56565b005b34801561039957600080fd5b506103a26110fd565b6040516103af9190614203565b60405180910390f35b3480156103c457600080fd5b506103cd611104565b6040516103da9190614203565b60405180910390f35b6103fd60048036038101906103f8919061392a565b61110a565b005b34801561040b57600080fd5b5061042660048036038101906104219190613a5c565b611123565b005b34801561043457600080fd5b5061043d6113df565b60405161044a9190613fe6565b60405180910390f35b34801561045f57600080fd5b5061047a60048036038101906104759190613a5c565b611405565b005b34801561048857600080fd5b506104916115af565b60405161049e9190613f50565b60405180910390f35b3480156104b357600080fd5b506104ce60048036038101906104c99190613aae565b6115c6565b6040516104db9190614203565b60405180910390f35b3480156104f057600080fd5b5061050b60048036038101906105069190613a5c565b611910565b005b34801561051957600080fd5b50610522611996565b005b34801561053057600080fd5b5061054b60048036038101906105469190613b75565b6119ca565b005b34801561055957600080fd5b50610562611b34565b005b34801561057057600080fd5b50610579611bbc565b6040516105869190613fcb565b60405180910390f35b34801561059b57600080fd5b506105a4611be2565b005b3480156105b257600080fd5b506105bb611c68565b6040516105c89190614203565b60405180910390f35b3480156105dd57600080fd5b506105e6611c6e565b6040516105f39190613eac565b60405180910390f35b34801561060857600080fd5b50610623600480360381019061061e9190613b39565b611c98565b6040516106309190614203565b60405180910390f35b34801561064557600080fd5b50610660600480360381019061065b9190613aae565b611cc9565b60405161066e92919061421e565b60405180910390f35b34801561068357600080fd5b5061069e600480360381019061069991906139d0565b611cfb565b005b3480156106ac57600080fd5b506106c760048036038101906106c29190613b39565b611f53565b005b3480156106d557600080fd5b506106f060048036038101906106eb9190613901565b61233e565b005b3480156106fe57600080fd5b50610707612436565b005b600061010080549050905090565b610100818154811061072857600080fd5b90600052602060002090600402016000915090508060000160009054906101000a900473ffffffffffffffffffffffffffffffffffffffff16908060010154908060020154908060030154905084565b6101025481565b610787612817565b73ffffffffffffffffffffffffffffffffffffffff166107a5611c6e565b73ffffffffffffffffffffffffffffffffffffffff16146107fb576040517f08c379a00000000000000000000000000000000000000000000000000000000081526004016107f290614103565b60405180910390fd5b801561080a57610809611996565b5b600061010354431161081f5761010354610821565b435b9050610839846101025461281f90919063ffffffff16565b6101028190555061010060405180608001604052808573ffffffffffffffffffffffffffffffffffffffff1681526020018681526020018381526020016000815250908060018154018082558091505060019003906000526020600020906004020160009091909190915060008201518160000160006101000a81548173ffffffffffffffffffffffffffffffffffffffff021916908373ffffffffffffffffffffffffffffffffffffffff160217905550602082015181600101556040820151816002015560608201518160030155505050505050565b610919612817565b73ffffffffffffffffffffffffffffffffffffffff16610937611c6e565b73ffffffffffffffffffffffffffffffffffffffff161461098d576040517f08c379a000000000000000000000000000000000000000000000000000000000815260040161098490614103565b60405180910390fd5b8060fe60006101000a81548173ffffffffffffffffffffffffffffffffffffffff021916908373ffffffffffffffffffffffffffffffffffffffff16021790555050565b6109da81612835565b6109f5816040518060200160405280600081525060006128b4565b50565b610a00612817565b73ffffffffffffffffffffffffffffffffffffffff16610a1e611c6e565b73ffffffffffffffffffffffffffffffffffffffff1614610a74576040517f08c379a0000000000000000000000000000000000000000000000000000000008152600401610a6b90614103565b60405180910390fd5b610a7c612a85565b565b610a866115af565b15610ac6576040517f08c379a0000000000000000000000000000000000000000000000000000000008152600401610abd906140a3565b60405180910390fd5b60006101008381548110610b03577f4e487b7100000000000000000000000000000000000000000000000000000000600052603260045260246000fd5b906000526020600020906004020190506000610101600085815260200190815260200160002060003373ffffffffffffffffffffffffffffffffffffffff1673ffffffffffffffffffffffffffffffffffffffff16815260200190815260200160002090508281600001541015610baf576040517f08c379a0000000000000000000000000000000000000000000000000000000008152600401610ba690614163565b60405180910390fd5b610bb884611123565b6000610c0a8260010154610bfc6c0c9f2c9cd04674edea40000000610bee87600301548760000154612b2790919063ffffffff16565b612b3d90919063ffffffff16565b612b5390919063ffffffff16565b90506000811115610c2057610c1f3382612b69565b5b6000841115610c9857610c40848360000154612b5390919063ffffffff16565b8260000181905550610c9733858560000160009054906101000a900473ffffffffffffffffffffffffffffffffffffffff1673ffffffffffffffffffffffffffffffffffffffff16612c1d9092919063ffffffff16565b5b610cd26c0c9f2c9cd04674edea40000000610cc485600301548560000154612b2790919063ffffffff16565b612b3d90919063ffffffff16565b8260010181905550843373ffffffffffffffffffffffffffffffffffffffff167ff279e6a1f5e320cca91135676d9cb6e44ca8a08c0b88342bcdb1144f6511b56886604051610d219190614203565b60405180910390a35050505050565b60fb60009054906101000a900473ffffffffffffffffffffffffffffffffffffffff1681565b600073ffffffffffffffffffffffffffffffffffffffff1660fe60009054906101000a900473ffffffffffffffffffffffffffffffffffffffff1673ffffffffffffffffffffffffffffffffffffffff161415610de8576040517f08c379a0000000000000000000000000000000000000000000000000000000008152600401610ddf906141e3565b60405180910390fd5b60006101008281548110610e25577f4e487b7100000000000000000000000000000000000000000000000000000000600052603260045260246000fd5b9060005260206000209060040201905060008160000160009054906101000a900473ffffffffffffffffffffffffffffffffffffffff16905060008173ffffffffffffffffffffffffffffffffffffffff166370a08231306040518263ffffffff1660e01b8152600401610e999190613eac565b60206040518083038186803b158015610eb157600080fd5b505afa158015610ec5573d6000803e3d6000fd5b505050506040513d601f19601f82011682018060405250810190610ee99190613a85565b9050610f3860fe60009054906101000a900473ffffffffffffffffffffffffffffffffffffffff16828473ffffffffffffffffffffffffffffffffffffffff16612ca39092919063ffffffff16565b600060fe60009054906101000a900473ffffffffffffffffffffffffffffffffffffffff1673ffffffffffffffffffffffffffffffffffffffff1663ce5494bb846040518263ffffffff1660e01b8152600401610f959190613f6b565b602060405180830381600087803b158015610faf57600080fd5b505af1158015610fc3573d6000803e3d6000fd5b505050506040513d601f19601f82011682018060405250810190610fe791906139a7565b90508073ffffffffffffffffffffffffffffffffffffffff166370a08231306040518263ffffffff1660e01b81526004016110229190613eac565b60206040518083038186803b15801561103a57600080fd5b505afa15801561104e573d6000803e3d6000fd5b505050506040513d601f19601f820116820180604052508101906110729190613a85565b82146110b3576040517f08c379a00000000000000000000000000000000000000000000000000000000081526004016110aa906141a3565b60405180910390fd5b808460000160006101000a81548173ffffffffffffffffffffffffffffffffffffffff021916908373ffffffffffffffffffffffffffffffffffffffff1602179055505050505050565b6101035481565b60fc5481565b61111382612835565b61111f828260016128b4565b5050565b60006101008281548110611160577f4e487b7100000000000000000000000000000000000000000000000000000000600052603260045260246000fd5b906000526020600020906004020190508060020154431161118157506113dc565b60008160000160009054906101000a900473ffffffffffffffffffffffffffffffffffffffff1673ffffffffffffffffffffffffffffffffffffffff166370a08231306040518263ffffffff1660e01b81526004016111e09190613eac565b60206040518083038186803b1580156111f857600080fd5b505afa15801561120c573d6000803e3d6000fd5b505050506040513d601f19601f820116820180604052508101906112309190613a85565b9050600081141561124b5743826002018190555050506113dc565b600061125b836002015443611c98565b9050600061129f61010254611291866001015461128360fc5487612b2790919063ffffffff16565b612b2790919063ffffffff16565b612b3d90919063ffffffff16565b9050600060fb60009054906101000a900473ffffffffffffffffffffffffffffffffffffffff1673ffffffffffffffffffffffffffffffffffffffff166370a0823160ff60009054906101000a900473ffffffffffffffffffffffffffffffffffffffff166040518263ffffffff1660e01b81526004016113209190613eac565b60206040518083038186803b15801561133857600080fd5b505afa15801561134c573d6000803e3d6000fd5b505050506040513d601f19601f820116820180604052508101906113709190613a85565b905080821061137d578091505b6113c56113b2856113a46c0c9f2c9cd04674edea4000000086612b2790919063ffffffff16565b612b3d90919063ffffffff16565b866003015461281f90919063ffffffff16565b856003018190555043856002018190555050505050505b50565b60ff60009054906101000a900473ffffffffffffffffffffffffffffffffffffffff1681565b61140d6115af565b61144c576040517f08c379a000000000000000000000000000000000000000000000000000000000815260040161144390614023565b60405180910390fd5b60006101008281548110611489577f4e487b7100000000000000000000000000000000000000000000000000000000600052603260045260246000fd5b906000526020600020906004020190506000610101600084815260200190815260200160002060003373ffffffffffffffffffffffffffffffffffffffff1673ffffffffffffffffffffffffffffffffffffffff1681526020019081526020016000209050600081600001549050600082600001819055506000826001018190555061155a33828560000160009054906101000a900473ffffffffffffffffffffffffffffffffffffffff1673ffffffffffffffffffffffffffffffffffffffff16612c1d9092919063ffffffff16565b833373ffffffffffffffffffffffffffffffffffffffff167fbb757047c2b5f3974fe26b7c10f732e7bce710b0952a71082702781e62ae0595836040516115a19190614203565b60405180910390a350505050565b6000603360009054906101000a900460ff16905090565b6000806101008481548110611604577f4e487b7100000000000000000000000000000000000000000000000000000000600052603260045260246000fd5b906000526020600020906004020190506000610101600086815260200190815260200160002060008573ffffffffffffffffffffffffffffffffffffffff1673ffffffffffffffffffffffffffffffffffffffff168152602001908152602001600020905060008260030154905060008360000160009054906101000a900473ffffffffffffffffffffffffffffffffffffffff1673ffffffffffffffffffffffffffffffffffffffff166370a08231306040518263ffffffff1660e01b81526004016116d19190613eac565b60206040518083038186803b1580156116e957600080fd5b505afa1580156116fd573d6000803e3d6000fd5b505050506040513d601f19601f820116820180604052508101906117219190613a85565b9050836002015443118015611737575060008114155b156118b857600061174c856002015443611c98565b9050600061179061010254611782886001015461177460fc5487612b2790919063ffffffff16565b612b2790919063ffffffff16565b612b3d90919063ffffffff16565b9050600060fb60009054906101000a900473ffffffffffffffffffffffffffffffffffffffff1673ffffffffffffffffffffffffffffffffffffffff166370a0823160ff60009054906101000a900473ffffffffffffffffffffffffffffffffffffffff166040518263ffffffff1660e01b81526004016118119190613eac565b60206040518083038186803b15801561182957600080fd5b505afa15801561183d573d6000803e3d6000fd5b505050506040513d601f19601f820116820180604052508101906118619190613a85565b905080821061186e578091505b6118b26118a3856118956c0c9f2c9cd04674edea4000000086612b2790919063ffffffff16565b612b3d90919063ffffffff16565b8661281f90919063ffffffff16565b94505050505b61190483600101546118f66c0c9f2c9cd04674edea400000006118e8868860000154612b2790919063ffffffff16565b612b3d90919063ffffffff16565b612b5390919063ffffffff16565b94505050505092915050565b611918612817565b73ffffffffffffffffffffffffffffffffffffffff16611936611c6e565b73ffffffffffffffffffffffffffffffffffffffff161461198c576040517f08c379a000000000000000000000000000000000000000000000000000000000815260040161198390614103565b60405180910390fd5b8060fd8190555050565b600061010080549050905060005b818110156119c6576119b581611123565b806119bf90614541565b90506119a4565b5050565b6119d2612817565b73ffffffffffffffffffffffffffffffffffffffff166119f0611c6e565b73ffffffffffffffffffffffffffffffffffffffff1614611a46576040517f08c379a0000000000000000000000000000000000000000000000000000000008152600401611a3d90614103565b60405180910390fd5b8015611a5557611a54611996565b5b60006101008481548110611a92577f4e487b7100000000000000000000000000000000000000000000000000000000600052603260045260246000fd5b9060005260206000209060040201600101549050826101008581548110611ae2577f4e487b7100000000000000000000000000000000000000000000000000000000600052603260045260246000fd5b906000526020600020906004020160010181905550828114611b2e57611b2683611b188361010254612b5390919063ffffffff16565b61281f90919063ffffffff16565b610102819055505b50505050565b611b3c612817565b73ffffffffffffffffffffffffffffffffffffffff16611b5a611c6e565b73ffffffffffffffffffffffffffffffffffffffff1614611bb0576040517f08c379a0000000000000000000000000000000000000000000000000000000008152600401611ba790614103565b60405180910390fd5b611bba6000612e01565b565b60fe60009054906101000a900473ffffffffffffffffffffffffffffffffffffffff1681565b611bea612817565b73ffffffffffffffffffffffffffffffffffffffff16611c08611c6e565b73ffffffffffffffffffffffffffffffffffffffff1614611c5e576040517f08c379a0000000000000000000000000000000000000000000000000000000008152600401611c5590614103565b60405180910390fd5b611c66612ec7565b565b60fd5481565b600060c960009054906101000a900473ffffffffffffffffffffffffffffffffffffffff16905090565b6000611cc160fd54611cb38585612b5390919063ffffffff16565b612b2790919063ffffffff16565b905092915050565b610101602052816000526040600020602052806000526040600020600091509150508060000154908060010154905082565b600060019054906101000a900460ff1680611d21575060008054906101000a900460ff16155b611d60576040517f08c379a0000000000000000000000000000000000000000000000000000000008152600401611d57906140c3565b60405180910390fd5b60008060019054906101000a900460ff161590508015611db0576001600060016101000a81548160ff02191690831515021790555060016000806101000a81548160ff0219169083151502179055505b611db8612f6a565b8460fb60006101000a81548173ffffffffffffffffffffffffffffffffffffffff021916908373ffffffffffffffffffffffffffffffffffffffff1602179055508360fc8190555082610103819055508160ff60006101000a81548173ffffffffffffffffffffffffffffffffffffffff021916908373ffffffffffffffffffffffffffffffffffffffff16021790555061010060405180608001604052808773ffffffffffffffffffffffffffffffffffffffff16815260200160c881526020016101035481526020016000815250908060018154018082558091505060019003906000526020600020906004020160009091909190915060008201518160000160006101000a81548173ffffffffffffffffffffffffffffffffffffffff021916908373ffffffffffffffffffffffffffffffffffffffff1602179055506020820151816001015560408201518160020155606082015181600301555050620f424060fd8190555060c8610102819055508015611f4c5760008060016101000a81548160ff0219169083151502179055505b5050505050565b611f5b6115af565b15611f9b576040517f08c379a0000000000000000000000000000000000000000000000000000000008152600401611f92906140a3565b60405180910390fd5b60006101008381548110611fd8577f4e487b7100000000000000000000000000000000000000000000000000000000600052603260045260246000fd5b906000526020600020906004020190506000610101600085815260200190815260200160002060003373ffffffffffffffffffffffffffffffffffffffff1673ffffffffffffffffffffffffffffffffffffffff168152602001908152602001600020905061204684611123565b6000816000015411156120bd5760006120a582600101546120976c0c9f2c9cd04674edea4000000061208987600301548760000154612b2790919063ffffffff16565b612b3d90919063ffffffff16565b612b5390919063ffffffff16565b905060008111156120bb576120ba3382612b69565b5b505b60008311156122a75760008260000160009054906101000a900473ffffffffffffffffffffffffffffffffffffffff1673ffffffffffffffffffffffffffffffffffffffff166370a08231306040518263ffffffff1660e01b81526004016121259190613eac565b60206040518083038186803b15801561213d57600080fd5b505afa158015612151573d6000803e3d6000fd5b505050506040513d601f19601f820116820180604052508101906121759190613a85565b90506121c83330868660000160009054906101000a900473ffffffffffffffffffffffffffffffffffffffff1673ffffffffffffffffffffffffffffffffffffffff16613053909392919063ffffffff16565b61229d61228a828560000160009054906101000a900473ffffffffffffffffffffffffffffffffffffffff1673ffffffffffffffffffffffffffffffffffffffff166370a08231306040518263ffffffff1660e01b815260040161222c9190613eac565b60206040518083038186803b15801561224457600080fd5b505afa158015612258573d6000803e3d6000fd5b505050506040513d601f19601f8201168201806040525081019061227c9190613a85565b612b5390919063ffffffff16565b836000015461281f90919063ffffffff16565b8260000181905550505b6122e16c0c9f2c9cd04674edea400000006122d384600301548460000154612b2790919063ffffffff16565b612b3d90919063ffffffff16565b8160010181905550833373ffffffffffffffffffffffffffffffffffffffff167f90890809c654f11d6e72a28fa60149770a0d11ec6c92319d6ceb2bb0a4ea1a15856040516123309190614203565b60405180910390a350505050565b612346612817565b73ffffffffffffffffffffffffffffffffffffffff16612364611c6e565b73ffffffffffffffffffffffffffffffffffffffff16146123ba576040517f08c379a00000000000000000000000000000000000000000000000000000000081526004016123b190614103565b60405180910390fd5b600073ffffffffffffffffffffffffffffffffffffffff168173ffffffffffffffffffffffffffffffffffffffff16141561242a576040517f08c379a000000000000000000000000000000000000000000000000000000000815260040161242190614063565b60405180910390fd5b61243381612e01565b50565b61243e6115af565b1561247e576040517f08c379a0000000000000000000000000000000000000000000000000000000008152600401612475906140a3565b60405180910390fd5b60006101006000815481106124bc577f4e487b7100000000000000000000000000000000000000000000000000000000600052603260045260246000fd5b906000526020600020906004020190506000610101600080815260200190815260200160002060003373ffffffffffffffffffffffffffffffffffffffff1673ffffffffffffffffffffffffffffffffffffffff168152602001908152602001600020905061252b6000611123565b60008160000154111561281357600061258a826001015461257c6c0c9f2c9cd04674edea4000000061256e87600301548760000154612b2790919063ffffffff16565b612b3d90919063ffffffff16565b612b5390919063ffffffff16565b905060008360000160009054906101000a900473ffffffffffffffffffffffffffffffffffffffff1673ffffffffffffffffffffffffffffffffffffffff166370a08231306040518263ffffffff1660e01b81526004016125eb9190613eac565b60206040518083038186803b15801561260357600080fd5b505afa158015612617573d6000803e3d6000fd5b505050506040513d601f19601f8201168201806040525081019061263b9190613a85565b90506000821115612651576126503083612b69565b5b612726612713828660000160009054906101000a900473ffffffffffffffffffffffffffffffffffffffff1673ffffffffffffffffffffffffffffffffffffffff166370a08231306040518263ffffffff1660e01b81526004016126b59190613eac565b60206040518083038186803b1580156126cd57600080fd5b505afa1580156126e1573d6000803e3d6000fd5b505050506040513d601f19601f820116820180604052508101906127059190613a85565b612b5390919063ffffffff16565b846000015461281f90919063ffffffff16565b83600001819055506127686c0c9f2c9cd04674edea4000000061275a86600301548660000154612b2790919063ffffffff16565b612b3d90919063ffffffff16565b836001018190555060003373ffffffffffffffffffffffffffffffffffffffff167ff279e6a1f5e320cca91135676d9cb6e44ca8a08c0b88342bcdb1144f6511b568846040516127b89190614203565b60405180910390a360003373ffffffffffffffffffffffffffffffffffffffff167f90890809c654f11d6e72a28fa60149770a0d11ec6c92319d6ceb2bb0a4ea1a15846040516128089190614203565b60405180910390a350505b5050565b600033905090565b6000818361282d91906142cf565b905092915050565b61283d612817565b73ffffffffffffffffffffffffffffffffffffffff1661285b611c6e565b73ffffffffffffffffffffffffffffffffffffffff16146128b1576040517f08c379a00000000000000000000000000000000000000000000000000000000081526004016128a890614103565b60405180910390fd5b50565b60006128be6130dc565b90506128c984613133565b6000835111806128d65750815b156128e7576128e584846131ec565b505b60006129157f4910fdfa16fed3260ed0e7147f7cc6da11a60208b5b9406d12a635614ffd914360001b6132d0565b90508060000160009054906101000a900460ff16612a7e5760018160000160006101000a81548160ff0219169083151502179055506129e1858360405160240161295f9190613eac565b6040516020818303038152906040527f3659cfe6000000000000000000000000000000000000000000000000000000007bffffffffffffffffffffffffffffffffffffffffffffffffffffffff19166020820180517bffffffffffffffffffffffffffffffffffffffffffffffffffffffff83818316178352505050506131ec565b5060008160000160006101000a81548160ff021916908315150217905550612a076130dc565b73ffffffffffffffffffffffffffffffffffffffff168273ffffffffffffffffffffffffffffffffffffffff1614612a74576040517f08c379a0000000000000000000000000000000000000000000000000000000008152600401612a6b90614043565b60405180910390fd5b612a7d856132da565b5b5050505050565b612a8d6115af565b612acc576040517f08c379a0000000000000000000000000000000000000000000000000000000008152600401612ac390614023565b60405180910390fd5b6000603360006101000a81548160ff0219169083151502179055507f5db9ee0a495bf2e6ff9c91a7834c1ba4fdd244a5e8aa4e537bd38aeae4b073aa612b10612817565b604051612b1d9190613eac565b60405180910390a1565b60008183612b359190614356565b905092915050565b60008183612b4b9190614325565b905092915050565b60008183612b6191906143b0565b905092915050565b60ff60009054906101000a900473ffffffffffffffffffffffffffffffffffffffff1673ffffffffffffffffffffffffffffffffffffffff16635b9f3ce183836040518363ffffffff1660e01b8152600401612bc6929190613f27565b602060405180830381600087803b158015612be057600080fd5b505af1158015612bf4573d6000803e3d6000fd5b505050506040513d601f19601f82011682018060405250810190612c189190613a85565b505050565b612c9e8363a9059cbb60e01b8484604051602401612c3c929190613f27565b604051602081830303815290604052907bffffffffffffffffffffffffffffffffffffffffffffffffffffffff19166020820180517bffffffffffffffffffffffffffffffffffffffffffffffffffffffff8381831617835250505050613329565b505050565b6000811480612d3c575060008373ffffffffffffffffffffffffffffffffffffffff1663dd62ed3e30856040518363ffffffff1660e01b8152600401612cea929190613ec7565b60206040518083038186803b158015612d0257600080fd5b505afa158015612d16573d6000803e3d6000fd5b505050506040513d601f19601f82011682018060405250810190612d3a9190613a85565b145b612d7b576040517f08c379a0000000000000000000000000000000000000000000000000000000008152600401612d72906141c3565b60405180910390fd5b612dfc8363095ea7b360e01b8484604051602401612d9a929190613f27565b604051602081830303815290604052907bffffffffffffffffffffffffffffffffffffffffffffffffffffffff19166020820180517bffffffffffffffffffffffffffffffffffffffffffffffffffffffff8381831617835250505050613329565b505050565b600060c960009054906101000a900473ffffffffffffffffffffffffffffffffffffffff1690508160c960006101000a81548173ffffffffffffffffffffffffffffffffffffffff021916908373ffffffffffffffffffffffffffffffffffffffff1602179055508173ffffffffffffffffffffffffffffffffffffffff168173ffffffffffffffffffffffffffffffffffffffff167f8be0079c531659141344cd1fd0a4f28419497f9722a3daafe3b4186f6b6457e060405160405180910390a35050565b612ecf6115af565b15612f0f576040517f08c379a0000000000000000000000000000000000000000000000000000000008152600401612f06906140a3565b60405180910390fd5b6001603360006101000a81548160ff0219169083151502179055507f62e78cea01bee320cd4e420270b5ea74000d11b0c9f74754ebdbfc544b05a258612f53612817565b604051612f609190613eac565b60405180910390a1565b600060019054906101000a900460ff1680612f90575060008054906101000a900460ff16155b612fcf576040517f08c379a0000000000000000000000000000000000000000000000000000000008152600401612fc6906140c3565b60405180910390fd5b60008060019054906101000a900460ff16159050801561301f576001600060016101000a81548160ff02191690831515021790555060016000806101000a81548160ff0219169083151502179055505b6130276133f0565b61302f6134c9565b80156130505760008060016101000a81548160ff0219169083151502179055505b50565b6130d6846323b872dd60e01b85858560405160240161307493929190613ef0565b604051602081830303815290604052907bffffffffffffffffffffffffffffffffffffffffffffffffffffffff19166020820180517bffffffffffffffffffffffffffffffffffffffffffffffffffffffff8381831617835250505050613329565b50505050565b600061310a7f360894a13ba1a3210667c828492db98dca3e2076cc3735a920a3ca505d382bbc60001b6135b2565b60000160009054906101000a900473ffffffffffffffffffffffffffffffffffffffff16905090565b61313c816135bc565b61317b576040517f08c379a0000000000000000000000000000000000000000000000000000000008152600401613172906140e3565b60405180910390fd5b806131a87f360894a13ba1a3210667c828492db98dca3e2076cc3735a920a3ca505d382bbc60001b6135b2565b60000160006101000a81548173ffffffffffffffffffffffffffffffffffffffff021916908373ffffffffffffffffffffffffffffffffffffffff16021790555050565b60606131f7836135bc565b613236576040517f08c379a000000000000000000000000000000000000000000000000000000000815260040161322d90614123565b60405180910390fd5b6000808473ffffffffffffffffffffffffffffffffffffffff168460405161325e9190613e95565b600060405180830381855af49150503d8060008114613299576040519150601f19603f3d011682016040523d82523d6000602084013e61329e565b606091505b50915091506132c68282604051806060016040528060278152602001614a4a602791396135cf565b9250505092915050565b6000819050919050565b6132e381613133565b8073ffffffffffffffffffffffffffffffffffffffff167fbc7cd75a20ee27fd9adebab32041f755214dbc6bffa90cc0225b39da2e5c2d3b60405160405180910390a250565b600061338b826040518060400160405280602081526020017f5361666545524332303a206c6f772d6c6576656c2063616c6c206661696c65648152508573ffffffffffffffffffffffffffffffffffffffff166136369092919063ffffffff16565b90506000815111156133eb57808060200190518101906133ab919061397e565b6133ea576040517f08c379a00000000000000000000000000000000000000000000000000000000081526004016133e190614183565b60405180910390fd5b5b505050565b600060019054906101000a900460ff1680613416575060008054906101000a900460ff16155b613455576040517f08c379a000000000000000000000000000000000000000000000000000000000815260040161344c906140c3565b60405180910390fd5b60008060019054906101000a900460ff1615905080156134a5576001600060016101000a81548160ff02191690831515021790555060016000806101000a81548160ff0219169083151502179055505b80156134c65760008060016101000a81548160ff0219169083151502179055505b50565b600060019054906101000a900460ff16806134ef575060008054906101000a900460ff16155b61352e576040517f08c379a0000000000000000000000000000000000000000000000000000000008152600401613525906140c3565b60405180910390fd5b60008060019054906101000a900460ff16159050801561357e576001600060016101000a81548160ff02191690831515021790555060016000806101000a81548160ff0219169083151502179055505b61358e613589612817565b612e01565b80156135af5760008060016101000a81548160ff0219169083151502179055505b50565b6000819050919050565b600080823b905060008111915050919050565b606083156135df5782905061362f565b6000835111156135f25782518084602001fd5b816040517f08c379a00000000000000000000000000000000000000000000000000000000081526004016136269190614001565b60405180910390fd5b9392505050565b6060613645848460008561364e565b90509392505050565b606082471015613693576040517f08c379a000000000000000000000000000000000000000000000000000000000815260040161368a90614083565b60405180910390fd5b61369c85613762565b6136db576040517f08c379a00000000000000000000000000000000000000000000000000000000081526004016136d290614143565b60405180910390fd5b6000808673ffffffffffffffffffffffffffffffffffffffff1685876040516137049190613e95565b60006040518083038185875af1925050503d8060008114613741576040519150601f19603f3d011682016040523d82523d6000602084013e613746565b606091505b5091509150613756828286613775565b92505050949350505050565b600080823b905060008111915050919050565b60608315613785578290506137d5565b6000835111156137985782518084602001fd5b816040517f08c379a00000000000000000000000000000000000000000000000000000000081526004016137cc9190614001565b60405180910390fd5b9392505050565b60006137ef6137ea8461426c565b614247565b90508281526020810184848401111561380757600080fd5b6138128482856144ce565b509392505050565b600081359050613829816149bf565b92915050565b60008135905061383e816149d6565b92915050565b600081519050613853816149d6565b92915050565b600082601f83011261386a57600080fd5b813561387a8482602086016137dc565b91505092915050565b600081359050613892816149ed565b92915050565b6000815190506138a7816149ed565b92915050565b6000813590506138bc81614a04565b92915050565b6000813590506138d181614a1b565b92915050565b6000813590506138e681614a32565b92915050565b6000815190506138fb81614a32565b92915050565b60006020828403121561391357600080fd5b60006139218482850161381a565b91505092915050565b6000806040838503121561393d57600080fd5b600061394b8582860161381a565b925050602083013567ffffffffffffffff81111561396857600080fd5b61397485828601613859565b9150509250929050565b60006020828403121561399057600080fd5b600061399e84828501613844565b91505092915050565b6000602082840312156139b957600080fd5b60006139c784828501613898565b91505092915050565b600080600080608085870312156139e657600080fd5b60006139f487828801613883565b9450506020613a05878288016138d7565b9350506040613a16878288016138d7565b9250506060613a27878288016138c2565b91505092959194509250565b600060208284031215613a4557600080fd5b6000613a53848285016138ad565b91505092915050565b600060208284031215613a6e57600080fd5b6000613a7c848285016138d7565b91505092915050565b600060208284031215613a9757600080fd5b6000613aa5848285016138ec565b91505092915050565b60008060408385031215613ac157600080fd5b6000613acf858286016138d7565b9250506020613ae08582860161381a565b9150509250929050565b600080600060608486031215613aff57600080fd5b6000613b0d868287016138d7565b9350506020613b1e86828701613883565b9250506040613b2f8682870161382f565b9150509250925092565b60008060408385031215613b4c57600080fd5b6000613b5a858286016138d7565b9250506020613b6b858286016138d7565b9150509250929050565b600080600060608486031215613b8a57600080fd5b6000613b98868287016138d7565b9350506020613ba9868287016138d7565b9250506040613bba8682870161382f565b9150509250925092565b613bcd816143e4565b82525050565b613bdc816143f6565b82525050565b6000613bed8261429d565b613bf781856142b3565b9350613c078185602086016144dd565b80840191505092915050565b613c1c81614462565b82525050565b613c2b81614486565b82525050565b613c3a816144aa565b82525050565b6000613c4b826142a8565b613c5581856142be565b9350613c658185602086016144dd565b613c6e81614617565b840191505092915050565b6000613c866014836142be565b9150613c9182614628565b602082019050919050565b6000613ca9602f836142be565b9150613cb482614651565b604082019050919050565b6000613ccc6026836142be565b9150613cd7826146a0565b604082019050919050565b6000613cef6026836142be565b9150613cfa826146ef565b604082019050919050565b6000613d126010836142be565b9150613d1d8261473e565b602082019050919050565b6000613d35602e836142be565b9150613d4082614767565b604082019050919050565b6000613d58602d836142be565b9150613d63826147b6565b604082019050919050565b6000613d7b6020836142be565b9150613d8682614805565b602082019050919050565b6000613d9e6026836142be565b9150613da98261482e565b604082019050919050565b6000613dc1601d836142be565b9150613dcc8261487d565b602082019050919050565b6000613de46012836142be565b9150613def826148a6565b602082019050919050565b6000613e07602a836142be565b9150613e12826148cf565b604082019050919050565b6000613e2a600c836142be565b9150613e358261491e565b602082019050919050565b6000613e4d6036836142be565b9150613e5882614947565b604082019050919050565b6000613e706014836142be565b9150613e7b82614996565b602082019050919050565b613e8f81614458565b82525050565b6000613ea18284613be2565b915081905092915050565b6000602082019050613ec16000830184613bc4565b92915050565b6000604082019050613edc6000830185613bc4565b613ee96020830184613bc4565b9392505050565b6000606082019050613f056000830186613bc4565b613f126020830185613bc4565b613f1f6040830184613e86565b949350505050565b6000604082019050613f3c6000830185613bc4565b613f496020830184613e86565b9392505050565b6000602082019050613f656000830184613bd3565b92915050565b6000602082019050613f806000830184613c13565b92915050565b6000608082019050613f9b6000830187613c13565b613fa86020830186613e86565b613fb56040830185613e86565b613fc26060830184613e86565b95945050505050565b6000602082019050613fe06000830184613c22565b92915050565b6000602082019050613ffb6000830184613c31565b92915050565b6000602082019050818103600083015261401b8184613c40565b905092915050565b6000602082019050818103600083015261403c81613c79565b9050919050565b6000602082019050818103600083015261405c81613c9c565b9050919050565b6000602082019050818103600083015261407c81613cbf565b9050919050565b6000602082019050818103600083015261409c81613ce2565b9050919050565b600060208201905081810360008301526140bc81613d05565b9050919050565b600060208201905081810360008301526140dc81613d28565b9050919050565b600060208201905081810360008301526140fc81613d4b565b9050919050565b6000602082019050818103600083015261411c81613d6e565b9050919050565b6000602082019050818103600083015261413c81613d91565b9050919050565b6000602082019050818103600083015261415c81613db4565b9050919050565b6000602082019050818103600083015261417c81613dd7565b9050919050565b6000602082019050818103600083015261419c81613dfa565b9050919050565b600060208201905081810360008301526141bc81613e1d565b9050919050565b600060208201905081810360008301526141dc81613e40565b9050919050565b600060208201905081810360008301526141fc81613e63565b9050919050565b60006020820190506142186000830184613e86565b92915050565b60006040820190506142336000830185613e86565b6142406020830184613e86565b9392505050565b6000614251614262565b905061425d8282614510565b919050565b6000604051905090565b600067ffffffffffffffff821115614287576142866145e8565b5b61429082614617565b9050602081019050919050565b600081519050919050565b600081519050919050565b600081905092915050565b600082825260208201905092915050565b60006142da82614458565b91506142e583614458565b9250827fffffffffffffffffffffffffffffffffffffffffffffffffffffffffffffffff0382111561431a5761431961458a565b5b828201905092915050565b600061433082614458565b915061433b83614458565b92508261434b5761434a6145b9565b5b828204905092915050565b600061436182614458565b915061436c83614458565b9250817fffffffffffffffffffffffffffffffffffffffffffffffffffffffffffffffff04831182151516156143a5576143a461458a565b5b828202905092915050565b60006143bb82614458565b91506143c683614458565b9250828210156143d9576143d861458a565b5b828203905092915050565b60006143ef82614438565b9050919050565b60008115159050919050565b600061440d826143e4565b9050919050565b600061441f826143e4565b9050919050565b6000614431826143e4565b9050919050565b600073ffffffffffffffffffffffffffffffffffffffff82169050919050565b6000819050919050565b600061446d82614474565b9050919050565b600061447f82614438565b9050919050565b600061449182614498565b9050919050565b60006144a382614438565b9050919050565b60006144b5826144bc565b9050919050565b60006144c782614438565b9050919050565b82818337600083830152505050565b60005b838110156144fb5780820151818401526020810190506144e0565b8381111561450a576000848401525b50505050565b61451982614617565b810181811067ffffffffffffffff82111715614538576145376145e8565b5b80604052505050565b600061454c82614458565b91507fffffffffffffffffffffffffffffffffffffffffffffffffffffffffffffffff82141561457f5761457e61458a565b5b600182019050919050565b7f4e487b7100000000000000000000000000000000000000000000000000000000600052601160045260246000fd5b7f4e487b7100000000000000000000000000000000000000000000000000000000600052601260045260246000fd5b7f4e487b7100000000000000000000000000000000000000000000000000000000600052604160045260246000fd5b6000601f19601f8301169050919050565b7f5061757361626c653a206e6f7420706175736564000000000000000000000000600082015250565b7f45524331393637557067726164653a207570677261646520627265616b73206660008201527f7572746865722075706772616465730000000000000000000000000000000000602082015250565b7f4f776e61626c653a206e6577206f776e657220697320746865207a65726f206160008201527f6464726573730000000000000000000000000000000000000000000000000000602082015250565b7f416464726573733a20696e73756666696369656e742062616c616e636520666f60008201527f722063616c6c0000000000000000000000000000000000000000000000000000602082015250565b7f5061757361626c653a2070617573656400000000000000000000000000000000600082015250565b7f496e697469616c697a61626c653a20636f6e747261637420697320616c72656160008201527f647920696e697469616c697a6564000000000000000000000000000000000000602082015250565b7f455243313936373a206e657720696d706c656d656e746174696f6e206973206e60008201527f6f74206120636f6e747261637400000000000000000000000000000000000000602082015250565b7f4f776e61626c653a2063616c6c6572206973206e6f7420746865206f776e6572600082015250565b7f416464726573733a2064656c65676174652063616c6c20746f206e6f6e2d636f60008201527f6e74726163740000000000000000000000000000000000000000000000000000602082015250565b7f416464726573733a2063616c6c20746f206e6f6e2d636f6e7472616374000000600082015250565b7f77697468647261773a206e6f7420676f6f640000000000000000000000000000600082015250565b7f5361666545524332303a204552433230206f7065726174696f6e20646964206e60008201527f6f74207375636365656400000000000000000000000000000000000000000000602082015250565b7f6d6967726174653a206261640000000000000000000000000000000000000000600082015250565b7f5361666545524332303a20617070726f76652066726f6d206e6f6e2d7a65726f60008201527f20746f206e6f6e2d7a65726f20616c6c6f77616e636500000000000000000000602082015250565b7f6d6967726174653a206e6f206d69677261746f72000000000000000000000000600082015250565b6149c8816143e4565b81146149d357600080fd5b50565b6149df816143f6565b81146149ea57600080fd5b50565b6149f681614402565b8114614a0157600080fd5b50565b614a0d81614414565b8114614a1857600080fd5b50565b614a2481614426565b8114614a2f57600080fd5b50565b614a3b81614458565b8114614a4657600080fd5b5056fe416464726573733a206c6f772d6c6576656c2064656c65676174652063616c6c206661696c6564a264697066735822122093c729253059b73db98a5f0aee685e2213afb3aab7332868f9a28964c6d5c8b864736f6c63430008020033",
  "linkReferences": {},
  "deployedLinkReferences": {}
}